{
  "address": "0x5FbDB2315678afecb367f032d93F642f64180aa3",
  "abi": [
    {
      "inputs": [],
      "stateMutability": "nonpayable",
      "type": "constructor"
    },
    {
      "anonymous": false,
      "inputs": [
        {
          "indexed": true,
          "internalType": "address",
          "name": "owner",
          "type": "address"
        },
        {
          "indexed": true,
          "internalType": "address",
          "name": "spender",
          "type": "address"
        },
        {
          "indexed": false,
          "internalType": "uint256",
          "name": "value",
          "type": "uint256"
        }
      ],
      "name": "Approval",
      "type": "event"
    },
    {
      "anonymous": false,
      "inputs": [
        {
          "indexed": true,
          "internalType": "address",
          "name": "from",
          "type": "address"
        },
        {
          "indexed": true,
          "internalType": "address",
          "name": "to",
          "type": "address"
        },
        {
          "indexed": false,
          "internalType": "uint256",
          "name": "value",
          "type": "uint256"
        }
      ],
      "name": "Transfer",
      "type": "event"
    },
    {
      "inputs": [],
      "name": "DOMAIN_SEPARATOR",
      "outputs": [
        {
          "internalType": "bytes32",
          "name": "",
          "type": "bytes32"
        }
      ],
      "stateMutability": "view",
      "type": "function"
    },
    {
      "inputs": [],
      "name": "YAK",
      "outputs": [
        {
          "internalType": "address",
          "name": "",
          "type": "address"
        }
      ],
      "stateMutability": "view",
      "type": "function"
    },
    {
      "inputs": [
        {
          "internalType": "address",
          "name": "owner",
          "type": "address"
        },
        {
          "internalType": "address",
          "name": "spender",
          "type": "address"
        }
      ],
      "name": "allowance",
      "outputs": [
        {
          "internalType": "uint256",
          "name": "",
          "type": "uint256"
        }
      ],
      "stateMutability": "view",
      "type": "function"
    },
    {
      "inputs": [
        {
          "internalType": "address",
          "name": "spender",
          "type": "address"
        },
        {
          "internalType": "uint256",
          "name": "amount",
          "type": "uint256"
        }
      ],
      "name": "approve",
      "outputs": [
        {
          "internalType": "bool",
          "name": "",
          "type": "bool"
        }
      ],
      "stateMutability": "nonpayable",
      "type": "function"
    },
    {
      "inputs": [
        {
          "internalType": "address",
          "name": "account",
          "type": "address"
        }
      ],
      "name": "balanceOf",
      "outputs": [
        {
          "internalType": "uint256",
          "name": "",
          "type": "uint256"
        }
      ],
      "stateMutability": "view",
      "type": "function"
    },
    {
      "inputs": [],
      "name": "decimals",
      "outputs": [
        {
          "internalType": "uint8",
          "name": "",
          "type": "uint8"
        }
      ],
      "stateMutability": "pure",
      "type": "function"
    },
    {
      "inputs": [
        {
          "internalType": "address",
          "name": "spender",
          "type": "address"
        },
        {
          "internalType": "uint256",
          "name": "subtractedValue",
          "type": "uint256"
        }
      ],
      "name": "decreaseAllowance",
      "outputs": [
        {
          "internalType": "bool",
          "name": "",
          "type": "bool"
        }
      ],
      "stateMutability": "nonpayable",
      "type": "function"
    },
    {
      "inputs": [
        {
          "internalType": "address",
          "name": "spender",
          "type": "address"
        },
        {
          "internalType": "uint256",
          "name": "addedValue",
          "type": "uint256"
        }
      ],
      "name": "increaseAllowance",
      "outputs": [
        {
          "internalType": "bool",
          "name": "",
          "type": "bool"
        }
      ],
      "stateMutability": "nonpayable",
      "type": "function"
    },
    {
      "inputs": [
        {
          "internalType": "uint256",
          "name": "amount",
          "type": "uint256"
        },
        {
          "internalType": "address",
          "name": "to",
          "type": "address"
        }
      ],
      "name": "moon",
      "outputs": [],
      "stateMutability": "nonpayable",
      "type": "function"
    },
    {
      "inputs": [
        {
          "internalType": "uint256",
          "name": "amount",
          "type": "uint256"
        },
        {
          "internalType": "address",
          "name": "to",
          "type": "address"
        },
        {
          "internalType": "uint256",
          "name": "deadline",
          "type": "uint256"
        },
        {
          "internalType": "uint8",
          "name": "v",
          "type": "uint8"
        },
        {
          "internalType": "bytes32",
          "name": "r",
          "type": "bytes32"
        },
        {
          "internalType": "bytes32",
          "name": "s",
          "type": "bytes32"
        }
      ],
      "name": "moonWithPermit",
      "outputs": [],
      "stateMutability": "nonpayable",
      "type": "function"
    },
    {
      "inputs": [],
      "name": "name",
      "outputs": [
        {
          "internalType": "string",
          "name": "",
          "type": "string"
        }
      ],
      "stateMutability": "view",
      "type": "function"
    },
    {
      "inputs": [
        {
          "internalType": "address",
          "name": "owner",
          "type": "address"
        }
      ],
      "name": "nonces",
      "outputs": [
        {
          "internalType": "uint256",
          "name": "",
          "type": "uint256"
        }
      ],
      "stateMutability": "view",
      "type": "function"
    },
    {
      "inputs": [
        {
          "internalType": "address",
          "name": "owner",
          "type": "address"
        },
        {
          "internalType": "address",
          "name": "spender",
          "type": "address"
        },
        {
          "internalType": "uint256",
          "name": "value",
          "type": "uint256"
        },
        {
          "internalType": "uint256",
          "name": "deadline",
          "type": "uint256"
        },
        {
          "internalType": "uint8",
          "name": "v",
          "type": "uint8"
        },
        {
          "internalType": "bytes32",
          "name": "r",
          "type": "bytes32"
        },
        {
          "internalType": "bytes32",
          "name": "s",
          "type": "bytes32"
        }
      ],
      "name": "permit",
      "outputs": [],
      "stateMutability": "nonpayable",
      "type": "function"
    },
    {
      "inputs": [],
      "name": "symbol",
      "outputs": [
        {
          "internalType": "string",
          "name": "",
          "type": "string"
        }
      ],
      "stateMutability": "view",
      "type": "function"
    },
    {
      "inputs": [],
      "name": "totalSupply",
      "outputs": [
        {
          "internalType": "uint256",
          "name": "",
          "type": "uint256"
        }
      ],
      "stateMutability": "view",
      "type": "function"
    },
    {
      "inputs": [
        {
          "internalType": "address",
          "name": "recipient",
          "type": "address"
        },
        {
          "internalType": "uint256",
          "name": "amount",
          "type": "uint256"
        }
      ],
      "name": "transfer",
      "outputs": [
        {
          "internalType": "bool",
          "name": "",
          "type": "bool"
        }
      ],
      "stateMutability": "nonpayable",
      "type": "function"
    },
    {
      "inputs": [
        {
          "internalType": "address",
          "name": "sender",
          "type": "address"
        },
        {
          "internalType": "address",
          "name": "recipient",
          "type": "address"
        },
        {
          "internalType": "uint256",
          "name": "amount",
          "type": "uint256"
        }
      ],
      "name": "transferFrom",
      "outputs": [
        {
          "internalType": "bool",
          "name": "",
          "type": "bool"
        }
      ],
      "stateMutability": "nonpayable",
      "type": "function"
    },
    {
      "inputs": [
        {
          "internalType": "uint256",
          "name": "amount",
          "type": "uint256"
        },
        {
          "internalType": "address",
          "name": "to",
          "type": "address"
        }
      ],
      "name": "unmoon",
      "outputs": [],
      "stateMutability": "nonpayable",
      "type": "function"
    },
    {
      "inputs": [
        {
          "internalType": "uint256",
          "name": "amount",
          "type": "uint256"
        },
        {
          "internalType": "address",
          "name": "to",
          "type": "address"
        },
        {
          "internalType": "uint256",
          "name": "deadline",
          "type": "uint256"
        },
        {
          "internalType": "uint8",
          "name": "v",
          "type": "uint8"
        },
        {
          "internalType": "bytes32",
          "name": "r",
          "type": "bytes32"
        },
        {
          "internalType": "bytes32",
          "name": "s",
          "type": "bytes32"
        }
      ],
      "name": "unmoonWithPermit",
      "outputs": [],
      "stateMutability": "nonpayable",
      "type": "function"
    }
  ],
  "transactionHash": "0x4364290d7401933031dd73892db269fc1a96c0a7dd505747af6944c65ff6e563",
  "args": [],
  "solcInputHash": "145204ec4c7fed4dd3d75a9645d4f2d9",
  "bytecode": "0x6101406040527f6e71edae12b1b97f4d1f60370fef10105fa2faae0126114a169c64845d6126c9610120908152507359414b3089ce2af0010e7523dea7e2b35d776ec7600660006101000a81548173ffffffffffffffffffffffffffffffffffffffff021916908373ffffffffffffffffffffffffffffffffffffffff1602179055503480156200008f57600080fd5b506040518060400160405280600781526020017f4d696e6959616b00000000000000000000000000000000000000000000000000815250806040518060400160405280600181526020017f31000000000000000000000000000000000000000000000000000000000000008152506040518060400160405280600781526020017f4d696e6959414b000000000000000000000000000000000000000000000000008152506040518060400160405280600481526020017f6d59414b000000000000000000000000000000000000000000000000000000008152508160039080519060200190620001819291906200025d565b5080600490805190602001906200019a9291906200025d565b50505060008280519060200120905060008280519060200120905060007f8b73c3c69bb8fe3d512ecc4cf759cc79239f7b179b0ffacaa9a75d522b39400f90508260c081815250508160e081815250504660a08181525050620002058184846200022160201b60201c565b608081815250508061010081815250505050505050506200044a565b600083838346306040516020016200023e95949392919062000340565b6040516020818303038152906040528051906020012090509392505050565b8280546200026b90620003e5565b90600052602060002090601f0160209004810192826200028f5760008555620002db565b82601f10620002aa57805160ff1916838001178555620002db565b82800160010185558215620002db579182015b82811115620002da578251825591602001919060010190620002bd565b5b509050620002ea9190620002ee565b5090565b5b8082111562000309576000816000905550600101620002ef565b5090565b62000318816200039d565b82525050565b6200032981620003b1565b82525050565b6200033a81620003db565b82525050565b600060a0820190506200035760008301886200031e565b6200036660208301876200031e565b6200037560408301866200031e565b6200038460608301856200032f565b6200039360808301846200030d565b9695505050505050565b6000620003aa82620003bb565b9050919050565b6000819050919050565b600073ffffffffffffffffffffffffffffffffffffffff82169050919050565b6000819050919050565b60006002820490506001821680620003fe57607f821691505b602082108114156200041557620004146200041b565b5b50919050565b7f4e487b7100000000000000000000000000000000000000000000000000000000600052602260045260246000fd5b60805160a05160c05160e05161010051610120516134be6200049a6000396000610cb7015260006114510152600061149301526000611472015260006113fe0152600061142601526134be6000f3fe608060405234801561001057600080fd5b50600436106101215760003560e01c80637ecebe00116100ad578063cabcc3e911610071578063cabcc3e914610344578063cfdc463e14610360578063d505accf1461037e578063dd62ed3e1461039a578063f2fe52c8146103ca57610121565b80637ecebe001461027a5780638ac5776b146102aa57806395d89b41146102c6578063a457c2d7146102e4578063a9059cbb1461031457610121565b8063313ce567116100f4578063313ce567146101c25780633644e515146101e057806339509351146101fe578063559540931461022e57806370a082311461024a57610121565b806306fdde0314610126578063095ea7b31461014457806318160ddd1461017457806323b872dd14610192575b600080fd5b61012e6103e6565b60405161013b9190612a37565b60405180910390f35b61015e600480360381019061015991906122f5565b610478565b60405161016b9190612908565b60405180910390f35b61017c610496565b6040516101899190612cb9565b60405180910390f35b6101ac60048036038101906101a79190612208565b6104a0565b6040516101b99190612908565b60405180910390f35b6101ca610598565b6040516101d79190612cd4565b60405180910390f35b6101e86105a1565b6040516101f59190612923565b60405180910390f35b610218600480360381019061021391906122f5565b6105b0565b6040516102259190612908565b60405180910390f35b61024860048036038101906102439190612383565b61065c565b005b610264600480360381019061025f91906121a3565b610772565b6040516102719190612cb9565b60405180910390f35b610294600480360381019061028f91906121a3565b6107ba565b6040516102a19190612cb9565b60405180910390f35b6102c460048036038101906102bf91906123bf565b61080a565b005b6102ce6109bd565b6040516102db9190612a37565b60405180910390f35b6102fe60048036038101906102f991906122f5565b610a4f565b60405161030b9190612908565b60405180910390f35b61032e600480360381019061032991906122f5565b610b3a565b60405161033b9190612908565b60405180910390f35b61035e60048036038101906103599190612383565b610b58565b005b610368610c4a565b604051610375919061281e565b60405180910390f35b61039860048036038101906103939190612257565b610c70565b005b6103b460048036038101906103af91906121cc565b610db2565b6040516103c19190612cb9565b60405180910390f35b6103e460048036038101906103df91906123bf565b610e39565b005b6060600380546103f590612e48565b80601f016020809104026020016040519081016040528092919081815260200182805461042190612e48565b801561046e5780601f106104435761010080835404028352916020019161046e565b820191906000526020600020905b81548152906001019060200180831161045157829003601f168201915b5050505050905090565b600061048c610485610fa6565b8484610fae565b6001905092915050565b6000600254905090565b60006104ad848484611179565b6000600160008673ffffffffffffffffffffffffffffffffffffffff1673ffffffffffffffffffffffffffffffffffffffff16815260200190815260200160002060006104f8610fa6565b73ffffffffffffffffffffffffffffffffffffffff1673ffffffffffffffffffffffffffffffffffffffff16815260200190815260200160002054905082811015610578576040517f08c379a000000000000000000000000000000000000000000000000000000000815260040161056f90612bb9565b60405180910390fd5b61058c85610584610fa6565b858403610fae565b60019150509392505050565b6000600c905090565b60006105ab6113fa565b905090565b60006106526105bd610fa6565b8484600160006105cb610fa6565b73ffffffffffffffffffffffffffffffffffffffff1673ffffffffffffffffffffffffffffffffffffffff16815260200190815260200160002060008873ffffffffffffffffffffffffffffffffffffffff1673ffffffffffffffffffffffffffffffffffffffff1681526020019081526020016000205461064d9190612d2c565b610fae565b6001905092915050565b600061071283600660009054906101000a900473ffffffffffffffffffffffffffffffffffffffff1673ffffffffffffffffffffffffffffffffffffffff166370a08231336040518263ffffffff1660e01b81526004016106bd919061281e565b60206040518083038186803b1580156106d557600080fd5b505afa1580156106e9573d6000803e3d6000fd5b505050506040513d601f19601f8201168201806040525081019061070d919061235a565b6114bd565b9050610763333083600660009054906101000a900473ffffffffffffffffffffffffffffffffffffffff1673ffffffffffffffffffffffffffffffffffffffff166114d6909392919063ffffffff16565b61076d828261155f565b505050565b60008060008373ffffffffffffffffffffffffffffffffffffffff1673ffffffffffffffffffffffffffffffffffffffff168152602001908152602001600020549050919050565b6000610803600560008473ffffffffffffffffffffffffffffffffffffffff1673ffffffffffffffffffffffffffffffffffffffff1681526020019081526020016000206116bf565b9050919050565b600660009054906101000a900473ffffffffffffffffffffffffffffffffffffffff1673ffffffffffffffffffffffffffffffffffffffff1663d505accf333089888888886040518863ffffffff1660e01b81526004016108719796959493929190612870565b600060405180830381600087803b15801561088b57600080fd5b505af115801561089f573d6000803e3d6000fd5b50505050600061095987600660009054906101000a900473ffffffffffffffffffffffffffffffffffffffff1673ffffffffffffffffffffffffffffffffffffffff166370a08231336040518263ffffffff1660e01b8152600401610904919061281e565b60206040518083038186803b15801561091c57600080fd5b505afa158015610930573d6000803e3d6000fd5b505050506040513d601f19601f82011682018060405250810190610954919061235a565b6114bd565b90506109aa333083600660009054906101000a900473ffffffffffffffffffffffffffffffffffffffff1673ffffffffffffffffffffffffffffffffffffffff166114d6909392919063ffffffff16565b6109b4868261155f565b50505050505050565b6060600480546109cc90612e48565b80601f01602080910402602001604051908101604052809291908181526020018280546109f890612e48565b8015610a455780601f10610a1a57610100808354040283529160200191610a45565b820191906000526020600020905b815481529060010190602001808311610a2857829003601f168201915b5050505050905090565b60008060016000610a5e610fa6565b73ffffffffffffffffffffffffffffffffffffffff1673ffffffffffffffffffffffffffffffffffffffff16815260200190815260200160002060008573ffffffffffffffffffffffffffffffffffffffff1673ffffffffffffffffffffffffffffffffffffffff16815260200190815260200160002054905082811015610b1b576040517f08c379a0000000000000000000000000000000000000000000000000000000008152600401610b1290612c79565b60405180910390fd5b610b2f610b26610fa6565b85858403610fae565b600191505092915050565b6000610b4e610b47610fa6565b8484611179565b6001905092915050565b6000610bec833073ffffffffffffffffffffffffffffffffffffffff166370a08231336040518263ffffffff1660e01b8152600401610b97919061281e565b60206040518083038186803b158015610baf57600080fd5b505afa158015610bc3573d6000803e3d6000fd5b505050506040513d601f19601f82011682018060405250810190610be7919061235a565b6114bd565b9050610bf833826116cd565b610c458282600660009054906101000a900473ffffffffffffffffffffffffffffffffffffffff1673ffffffffffffffffffffffffffffffffffffffff166118a49092919063ffffffff16565b505050565b600660009054906101000a900473ffffffffffffffffffffffffffffffffffffffff1681565b83421115610cb3576040517f08c379a0000000000000000000000000000000000000000000000000000000008152600401610caa90612af9565b60405180910390fd5b60007f0000000000000000000000000000000000000000000000000000000000000000888888610ce28c61192a565b89604051602001610cf89695949392919061293e565b6040516020818303038152906040528051906020012090506000610d1b82611988565b90506000610d2b828787876119a2565b90508973ffffffffffffffffffffffffffffffffffffffff168173ffffffffffffffffffffffffffffffffffffffff1614610d9b576040517f08c379a0000000000000000000000000000000000000000000000000000000008152600401610d9290612b99565b60405180910390fd5b610da68a8a8a610fae565b50505050505050505050565b6000600160008473ffffffffffffffffffffffffffffffffffffffff1673ffffffffffffffffffffffffffffffffffffffff16815260200190815260200160002060008373ffffffffffffffffffffffffffffffffffffffff1673ffffffffffffffffffffffffffffffffffffffff16815260200190815260200160002054905092915050565b3073ffffffffffffffffffffffffffffffffffffffff1663d505accf333089888888886040518863ffffffff1660e01b8152600401610e7e9796959493929190612870565b600060405180830381600087803b158015610e9857600080fd5b505af1158015610eac573d6000803e3d6000fd5b505050506000610f44873073ffffffffffffffffffffffffffffffffffffffff166370a08231336040518263ffffffff1660e01b8152600401610eef919061281e565b60206040518083038186803b158015610f0757600080fd5b505afa158015610f1b573d6000803e3d6000fd5b505050506040513d601f19601f82011682018060405250810190610f3f919061235a565b6114bd565b9050610f5033826116cd565b610f9d8682600660009054906101000a900473ffffffffffffffffffffffffffffffffffffffff1673ffffffffffffffffffffffffffffffffffffffff166118a49092919063ffffffff16565b50505050505050565b600033905090565b600073ffffffffffffffffffffffffffffffffffffffff168373ffffffffffffffffffffffffffffffffffffffff16141561101e576040517f08c379a000000000000000000000000000000000000000000000000000000000815260040161101590612c19565b60405180910390fd5b600073ffffffffffffffffffffffffffffffffffffffff168273ffffffffffffffffffffffffffffffffffffffff16141561108e576040517f08c379a000000000000000000000000000000000000000000000000000000000815260040161108590612ad9565b60405180910390fd5b80600160008573ffffffffffffffffffffffffffffffffffffffff1673ffffffffffffffffffffffffffffffffffffffff16815260200190815260200160002060008473ffffffffffffffffffffffffffffffffffffffff1673ffffffffffffffffffffffffffffffffffffffff168152602001908152602001600020819055508173ffffffffffffffffffffffffffffffffffffffff168373ffffffffffffffffffffffffffffffffffffffff167f8c5be1e5ebec7d5bd14f71427d1e84f3dd0314c0f7b2291e5b200ac8c7c3b9258360405161116c9190612cb9565b60405180910390a3505050565b600073ffffffffffffffffffffffffffffffffffffffff168373ffffffffffffffffffffffffffffffffffffffff1614156111e9576040517f08c379a00000000000000000000000000000000000000000000000000000000081526004016111e090612bf9565b60405180910390fd5b600073ffffffffffffffffffffffffffffffffffffffff168273ffffffffffffffffffffffffffffffffffffffff161415611259576040517f08c379a000000000000000000000000000000000000000000000000000000000815260040161125090612a79565b60405180910390fd5b6112648383836119cd565b60008060008573ffffffffffffffffffffffffffffffffffffffff1673ffffffffffffffffffffffffffffffffffffffff168152602001908152602001600020549050818110156112ea576040517f08c379a00000000000000000000000000000000000000000000000000000000081526004016112e190612b19565b60405180910390fd5b8181036000808673ffffffffffffffffffffffffffffffffffffffff1673ffffffffffffffffffffffffffffffffffffffff16815260200190815260200160002081905550816000808573ffffffffffffffffffffffffffffffffffffffff1673ffffffffffffffffffffffffffffffffffffffff168152602001908152602001600020600082825461137d9190612d2c565b925050819055508273ffffffffffffffffffffffffffffffffffffffff168473ffffffffffffffffffffffffffffffffffffffff167fddf252ad1be2c89b69c2b068fc378daa952ba7f163c4a11628f55a4df523b3ef846040516113e19190612cb9565b60405180910390a36113f48484846119d2565b50505050565b60007f000000000000000000000000000000000000000000000000000000000000000046141561144c577f000000000000000000000000000000000000000000000000000000000000000090506114ba565b6114b77f00000000000000000000000000000000000000000000000000000000000000007f00000000000000000000000000000000000000000000000000000000000000007f00000000000000000000000000000000000000000000000000000000000000006119d7565b90505b90565b60008183106114cc57816114ce565b825b905092915050565b611559846323b872dd60e01b8585856040516024016114f793929190612839565b604051602081830303815290604052907bffffffffffffffffffffffffffffffffffffffffffffffffffffffff19166020820180517bffffffffffffffffffffffffffffffffffffffffffffffffffffffff8381831617835250505050611a11565b50505050565b600073ffffffffffffffffffffffffffffffffffffffff168273ffffffffffffffffffffffffffffffffffffffff1614156115cf576040517f08c379a00000000000000000000000000000000000000000000000000000000081526004016115c690612c99565b60405180910390fd5b6115db600083836119cd565b80600260008282546115ed9190612d2c565b92505081905550806000808473ffffffffffffffffffffffffffffffffffffffff1673ffffffffffffffffffffffffffffffffffffffff16815260200190815260200160002060008282546116429190612d2c565b925050819055508173ffffffffffffffffffffffffffffffffffffffff16600073ffffffffffffffffffffffffffffffffffffffff167fddf252ad1be2c89b69c2b068fc378daa952ba7f163c4a11628f55a4df523b3ef836040516116a79190612cb9565b60405180910390a36116bb600083836119d2565b5050565b600081600001549050919050565b600073ffffffffffffffffffffffffffffffffffffffff168273ffffffffffffffffffffffffffffffffffffffff16141561173d576040517f08c379a000000000000000000000000000000000000000000000000000000000815260040161173490612bd9565b60405180910390fd5b611749826000836119cd565b60008060008473ffffffffffffffffffffffffffffffffffffffff1673ffffffffffffffffffffffffffffffffffffffff168152602001908152602001600020549050818110156117cf576040517f08c379a00000000000000000000000000000000000000000000000000000000081526004016117c690612a99565b60405180910390fd5b8181036000808573ffffffffffffffffffffffffffffffffffffffff1673ffffffffffffffffffffffffffffffffffffffff1681526020019081526020016000208190555081600260008282546118269190612d82565b92505081905550600073ffffffffffffffffffffffffffffffffffffffff168373ffffffffffffffffffffffffffffffffffffffff167fddf252ad1be2c89b69c2b068fc378daa952ba7f163c4a11628f55a4df523b3ef8460405161188b9190612cb9565b60405180910390a361189f836000846119d2565b505050565b6119258363a9059cbb60e01b84846040516024016118c39291906128df565b604051602081830303815290604052907bffffffffffffffffffffffffffffffffffffffffffffffffffffffff19166020820180517bffffffffffffffffffffffffffffffffffffffffffffffffffffffff8381831617835250505050611a11565b505050565b600080600560008473ffffffffffffffffffffffffffffffffffffffff1673ffffffffffffffffffffffffffffffffffffffff1681526020019081526020016000209050611977816116bf565b915061198281611ad8565b50919050565b600061199b6119956113fa565b83611aee565b9050919050565b60008060006119b387878787611b21565b915091506119c081611c2e565b8192505050949350505050565b505050565b505050565b600083838346306040516020016119f295949392919061299f565b6040516020818303038152906040528051906020012090509392505050565b6000611a73826040518060400160405280602081526020017f5361666545524332303a206c6f772d6c6576656c2063616c6c206661696c65648152508573ffffffffffffffffffffffffffffffffffffffff16611f7f9092919063ffffffff16565b9050600081511115611ad35780806020019051810190611a939190612331565b611ad2576040517f08c379a0000000000000000000000000000000000000000000000000000000008152600401611ac990612c59565b60405180910390fd5b5b505050565b6001816000016000828254019250508190555050565b60008282604051602001611b039291906127e7565b60405160208183030381529060405280519060200120905092915050565b6000807f7fffffffffffffffffffffffffffffff5d576e7357a4501ddfe92f46681b20a08360001c1115611b5c576000600391509150611c25565b601b8560ff1614158015611b745750601c8560ff1614155b15611b86576000600491509150611c25565b600060018787878760405160008152602001604052604051611bab94939291906129f2565b6020604051602081039080840390855afa158015611bcd573d6000803e3d6000fd5b505050602060405103519050600073ffffffffffffffffffffffffffffffffffffffff168173ffffffffffffffffffffffffffffffffffffffff161415611c1c57600060019250925050611c25565b80600092509250505b94509492505050565b60006004811115611c68577f4e487b7100000000000000000000000000000000000000000000000000000000600052602160045260246000fd5b816004811115611ca1577f4e487b7100000000000000000000000000000000000000000000000000000000600052602160045260246000fd5b1415611cac57611f7c565b60016004811115611ce6577f4e487b7100000000000000000000000000000000000000000000000000000000600052602160045260246000fd5b816004811115611d1f577f4e487b7100000000000000000000000000000000000000000000000000000000600052602160045260246000fd5b1415611d60576040517f08c379a0000000000000000000000000000000000000000000000000000000008152600401611d5790612a59565b60405180910390fd5b60026004811115611d9a577f4e487b7100000000000000000000000000000000000000000000000000000000600052602160045260246000fd5b816004811115611dd3577f4e487b7100000000000000000000000000000000000000000000000000000000600052602160045260246000fd5b1415611e14576040517f08c379a0000000000000000000000000000000000000000000000000000000008152600401611e0b90612ab9565b60405180910390fd5b60036004811115611e4e577f4e487b7100000000000000000000000000000000000000000000000000000000600052602160045260246000fd5b816004811115611e87577f4e487b7100000000000000000000000000000000000000000000000000000000600052602160045260246000fd5b1415611ec8576040517f08c379a0000000000000000000000000000000000000000000000000000000008152600401611ebf90612b39565b60405180910390fd5b600480811115611f01577f4e487b7100000000000000000000000000000000000000000000000000000000600052602160045260246000fd5b816004811115611f3a577f4e487b7100000000000000000000000000000000000000000000000000000000600052602160045260246000fd5b1415611f7b576040517f08c379a0000000000000000000000000000000000000000000000000000000008152600401611f7290612b79565b60405180910390fd5b5b50565b6060611f8e8484600085611f97565b90509392505050565b606082471015611fdc576040517f08c379a0000000000000000000000000000000000000000000000000000000008152600401611fd390612b59565b60405180910390fd5b611fe5856120ab565b612024576040517f08c379a000000000000000000000000000000000000000000000000000000000815260040161201b90612c39565b60405180910390fd5b6000808673ffffffffffffffffffffffffffffffffffffffff16858760405161204d91906127d0565b60006040518083038185875af1925050503d806000811461208a576040519150601f19603f3d011682016040523d82523d6000602084013e61208f565b606091505b509150915061209f8282866120be565b92505050949350505050565b600080823b905060008111915050919050565b606083156120ce5782905061211e565b6000835111156120e15782518084602001fd5b816040517f08c379a00000000000000000000000000000000000000000000000000000000081526004016121159190612a37565b60405180910390fd5b9392505050565b60008135905061213481613415565b92915050565b6000815190506121498161342c565b92915050565b60008135905061215e81613443565b92915050565b6000813590506121738161345a565b92915050565b6000815190506121888161345a565b92915050565b60008135905061219d81613471565b92915050565b6000602082840312156121b557600080fd5b60006121c384828501612125565b91505092915050565b600080604083850312156121df57600080fd5b60006121ed85828601612125565b92505060206121fe85828601612125565b9150509250929050565b60008060006060848603121561221d57600080fd5b600061222b86828701612125565b935050602061223c86828701612125565b925050604061224d86828701612164565b9150509250925092565b600080600080600080600060e0888a03121561227257600080fd5b60006122808a828b01612125565b97505060206122918a828b01612125565b96505060406122a28a828b01612164565b95505060606122b38a828b01612164565b94505060806122c48a828b0161218e565b93505060a06122d58a828b0161214f565b92505060c06122e68a828b0161214f565b91505092959891949750929550565b6000806040838503121561230857600080fd5b600061231685828601612125565b925050602061232785828601612164565b9150509250929050565b60006020828403121561234357600080fd5b60006123518482850161213a565b91505092915050565b60006020828403121561236c57600080fd5b600061237a84828501612179565b91505092915050565b6000806040838503121561239657600080fd5b60006123a485828601612164565b92505060206123b585828601612125565b9150509250929050565b60008060008060008060c087890312156123d857600080fd5b60006123e689828a01612164565b96505060206123f789828a01612125565b955050604061240889828a01612164565b945050606061241989828a0161218e565b935050608061242a89828a0161214f565b92505060a061243b89828a0161214f565b9150509295509295509295565b61245181612db6565b82525050565b61246081612dc8565b82525050565b61246f81612dd4565b82525050565b61248661248182612dd4565b612e7a565b82525050565b600061249782612cef565b6124a18185612d05565b93506124b1818560208601612e15565b80840191505092915050565b60006124c882612cfa565b6124d28185612d10565b93506124e2818560208601612e15565b6124eb81612ee2565b840191505092915050565b6000612503601883612d10565b915061250e82612ef3565b602082019050919050565b6000612526602383612d10565b915061253182612f1c565b604082019050919050565b6000612549602283612d10565b915061255482612f6b565b604082019050919050565b600061256c601f83612d10565b915061257782612fba565b602082019050919050565b600061258f602283612d10565b915061259a82612fe3565b604082019050919050565b60006125b2600283612d21565b91506125bd82613032565b600282019050919050565b60006125d5601d83612d10565b91506125e08261305b565b602082019050919050565b60006125f8602683612d10565b915061260382613084565b604082019050919050565b600061261b602283612d10565b9150612626826130d3565b604082019050919050565b600061263e602683612d10565b915061264982613122565b604082019050919050565b6000612661602283612d10565b915061266c82613171565b604082019050919050565b6000612684601e83612d10565b915061268f826131c0565b602082019050919050565b60006126a7602883612d10565b91506126b2826131e9565b604082019050919050565b60006126ca602183612d10565b91506126d582613238565b604082019050919050565b60006126ed602583612d10565b91506126f882613287565b604082019050919050565b6000612710602483612d10565b915061271b826132d6565b604082019050919050565b6000612733601d83612d10565b915061273e82613325565b602082019050919050565b6000612756602a83612d10565b91506127618261334e565b604082019050919050565b6000612779602583612d10565b91506127848261339d565b604082019050919050565b600061279c601f83612d10565b91506127a7826133ec565b602082019050919050565b6127bb81612dfe565b82525050565b6127ca81612e08565b82525050565b60006127dc828461248c565b915081905092915050565b60006127f2826125a5565b91506127fe8285612475565b60208201915061280e8284612475565b6020820191508190509392505050565b60006020820190506128336000830184612448565b92915050565b600060608201905061284e6000830186612448565b61285b6020830185612448565b61286860408301846127b2565b949350505050565b600060e082019050612885600083018a612448565b6128926020830189612448565b61289f60408301886127b2565b6128ac60608301876127b2565b6128b960808301866127c1565b6128c660a0830185612466565b6128d360c0830184612466565b98975050505050505050565b60006040820190506128f46000830185612448565b61290160208301846127b2565b9392505050565b600060208201905061291d6000830184612457565b92915050565b60006020820190506129386000830184612466565b92915050565b600060c0820190506129536000830189612466565b6129606020830188612448565b61296d6040830187612448565b61297a60608301866127b2565b61298760808301856127b2565b61299460a08301846127b2565b979650505050505050565b600060a0820190506129b46000830188612466565b6129c16020830187612466565b6129ce6040830186612466565b6129db60608301856127b2565b6129e86080830184612448565b9695505050505050565b6000608082019050612a076000830187612466565b612a1460208301866127c1565b612a216040830185612466565b612a2e6060830184612466565b95945050505050565b60006020820190508181036000830152612a5181846124bd565b905092915050565b60006020820190508181036000830152612a72816124f6565b9050919050565b60006020820190508181036000830152612a9281612519565b9050919050565b60006020820190508181036000830152612ab28161253c565b9050919050565b60006020820190508181036000830152612ad28161255f565b9050919050565b60006020820190508181036000830152612af281612582565b9050919050565b60006020820190508181036000830152612b12816125c8565b9050919050565b60006020820190508181036000830152612b32816125eb565b9050919050565b60006020820190508181036000830152612b528161260e565b9050919050565b60006020820190508181036000830152612b7281612631565b9050919050565b60006020820190508181036000830152612b9281612654565b9050919050565b60006020820190508181036000830152612bb281612677565b9050919050565b60006020820190508181036000830152612bd28161269a565b9050919050565b60006020820190508181036000830152612bf2816126bd565b9050919050565b60006020820190508181036000830152612c12816126e0565b9050919050565b60006020820190508181036000830152612c3281612703565b9050919050565b60006020820190508181036000830152612c5281612726565b9050919050565b60006020820190508181036000830152612c7281612749565b9050919050565b60006020820190508181036000830152612c928161276c565b9050919050565b60006020820190508181036000830152612cb28161278f565b9050919050565b6000602082019050612cce60008301846127b2565b92915050565b6000602082019050612ce960008301846127c1565b92915050565b600081519050919050565b600081519050919050565b600081905092915050565b600082825260208201905092915050565b600081905092915050565b6000612d3782612dfe565b9150612d4283612dfe565b9250827fffffffffffffffffffffffffffffffffffffffffffffffffffffffffffffffff03821115612d7757612d76612e84565b5b828201905092915050565b6000612d8d82612dfe565b9150612d9883612dfe565b925082821015612dab57612daa612e84565b5b828203905092915050565b6000612dc182612dde565b9050919050565b60008115159050919050565b6000819050919050565b600073ffffffffffffffffffffffffffffffffffffffff82169050919050565b6000819050919050565b600060ff82169050919050565b60005b83811015612e33578082015181840152602081019050612e18565b83811115612e42576000848401525b50505050565b60006002820490506001821680612e6057607f821691505b60208210811415612e7457612e73612eb3565b5b50919050565b6000819050919050565b7f4e487b7100000000000000000000000000000000000000000000000000000000600052601160045260246000fd5b7f4e487b7100000000000000000000000000000000000000000000000000000000600052602260045260246000fd5b6000601f19601f8301169050919050565b7f45434453413a20696e76616c6964207369676e61747572650000000000000000600082015250565b7f45524332303a207472616e7366657220746f20746865207a65726f206164647260008201527f6573730000000000000000000000000000000000000000000000000000000000602082015250565b7f45524332303a206275726e20616d6f756e7420657863656564732062616c616e60008201527f6365000000000000000000000000000000000000000000000000000000000000602082015250565b7f45434453413a20696e76616c6964207369676e6174757265206c656e67746800600082015250565b7f45524332303a20617070726f766520746f20746865207a65726f20616464726560008201527f7373000000000000000000000000000000000000000000000000000000000000602082015250565b7f1901000000000000000000000000000000000000000000000000000000000000600082015250565b7f45524332305065726d69743a206578706972656420646561646c696e65000000600082015250565b7f45524332303a207472616e7366657220616d6f756e742065786365656473206260008201527f616c616e63650000000000000000000000000000000000000000000000000000602082015250565b7f45434453413a20696e76616c6964207369676e6174757265202773272076616c60008201527f7565000000000000000000000000000000000000000000000000000000000000602082015250565b7f416464726573733a20696e73756666696369656e742062616c616e636520666f60008201527f722063616c6c0000000000000000000000000000000000000000000000000000602082015250565b7f45434453413a20696e76616c6964207369676e6174757265202776272076616c60008201527f7565000000000000000000000000000000000000000000000000000000000000602082015250565b7f45524332305065726d69743a20696e76616c6964207369676e61747572650000600082015250565b7f45524332303a207472616e7366657220616d6f756e742065786365656473206160008201527f6c6c6f77616e6365000000000000000000000000000000000000000000000000602082015250565b7f45524332303a206275726e2066726f6d20746865207a65726f2061646472657360008201527f7300000000000000000000000000000000000000000000000000000000000000602082015250565b7f45524332303a207472616e736665722066726f6d20746865207a65726f20616460008201527f6472657373000000000000000000000000000000000000000000000000000000602082015250565b7f45524332303a20617070726f76652066726f6d20746865207a65726f2061646460008201527f7265737300000000000000000000000000000000000000000000000000000000602082015250565b7f416464726573733a2063616c6c20746f206e6f6e2d636f6e7472616374000000600082015250565b7f5361666545524332303a204552433230206f7065726174696f6e20646964206e60008201527f6f74207375636365656400000000000000000000000000000000000000000000602082015250565b7f45524332303a2064656372656173656420616c6c6f77616e63652062656c6f7760008201527f207a65726f000000000000000000000000000000000000000000000000000000602082015250565b7f45524332303a206d696e7420746f20746865207a65726f206164647265737300600082015250565b61341e81612db6565b811461342957600080fd5b50565b61343581612dc8565b811461344057600080fd5b50565b61344c81612dd4565b811461345757600080fd5b50565b61346381612dfe565b811461346e57600080fd5b50565b61347a81612e08565b811461348557600080fd5b5056fea2646970667358221220fec5ce0937ac2fbe2c32bc647c66d8476a20590c674e34f729a73bb313e5b3f664736f6c63430008020033",
  "devdoc": {
    "kind": "dev",
    "methods": {
      "DOMAIN_SEPARATOR()": {
        "details": "See {IERC20Permit-DOMAIN_SEPARATOR}."
      },
      "allowance(address,address)": {
        "details": "See {IERC20-allowance}."
      },
      "approve(address,uint256)": {
        "details": "See {IERC20-approve}. Requirements: - `spender` cannot be the zero address."
      },
      "balanceOf(address)": {
        "details": "See {IERC20-balanceOf}."
      },
      "decimals()": {
        "details": "Returns the number of decimals used to get its user representation. For example, if `decimals` equals `2`, a balance of `505` tokens should be displayed to a user as `5,05` (`505 / 10 ** 2`)."
      },
      "decreaseAllowance(address,uint256)": {
        "details": "Atomically decreases the allowance granted to `spender` by the caller. This is an alternative to {approve} that can be used as a mitigation for problems described in {IERC20-approve}. Emits an {Approval} event indicating the updated allowance. Requirements: - `spender` cannot be the zero address. - `spender` must have allowance for the caller of at least `subtractedValue`."
      },
      "increaseAllowance(address,uint256)": {
        "details": "Atomically increases the allowance granted to `spender` by the caller. This is an alternative to {approve} that can be used as a mitigation for problems described in {IERC20-approve}. Emits an {Approval} event indicating the updated allowance. Requirements: - `spender` cannot be the zero address."
      },
      "moon(uint256,address)": {
        "params": {
          "amount": "amount of YAK that will be mooned",
          "to": "address of caller or the address to which miniYAK would be transferred to"
        }
      },
      "moonWithPermit(uint256,address,uint256,uint8,bytes32,bytes32)": {
        "params": {
          "amount": "amount of YAK that will be mooned",
          "to": "address of caller or the address to which miniYAK would be transferred to"
        }
      },
      "name()": {
        "details": "Returns the name of the token."
      },
      "nonces(address)": {
        "details": "See {IERC20Permit-nonces}."
      },
      "permit(address,address,uint256,uint256,uint8,bytes32,bytes32)": {
        "details": "See {IERC20Permit-permit}."
      },
      "symbol()": {
        "details": "Returns the symbol of the token, usually a shorter version of the name."
      },
      "totalSupply()": {
        "details": "See {IERC20-totalSupply}."
      },
      "transfer(address,uint256)": {
        "details": "See {IERC20-transfer}. Requirements: - `recipient` cannot be the zero address. - the caller must have a balance of at least `amount`."
      },
      "transferFrom(address,address,uint256)": {
        "details": "See {IERC20-transferFrom}. Emits an {Approval} event indicating the updated allowance. This is not required by the EIP. See the note at the beginning of {ERC20}. Requirements: - `sender` and `recipient` cannot be the zero address. - `sender` must have a balance of at least `amount`. - the caller must have allowance for ``sender``'s tokens of at least `amount`."
      },
      "unmoon(uint256,address)": {
        "params": {
          "amount": "amount of miniyak",
          "to": "address of caller or the address to which YAK would be transferred to"
        }
      },
      "unmoonWithPermit(uint256,address,uint256,uint8,bytes32,bytes32)": {
        "params": {
          "amount": "amount of miniyak",
          "to": "address of caller or the address to which YAK would be transferred to"
        }
      }
    },
    "version": 1
  },
  "userdoc": {
    "kind": "user",
    "methods": {
      "moon(uint256,address)": {
        "notice": "moons Yak to mini Yak (mints mini Yak )"
      },
      "moonWithPermit(uint256,address,uint256,uint8,bytes32,bytes32)": {
        "notice": "approves contract and moons Yak to mini Yak (mints mini Yak )"
      },
      "unmoon(uint256,address)": {
        "notice": "unmoons mini Yak to Yak and burns mini Yak"
      },
      "unmoonWithPermit(uint256,address,uint256,uint8,bytes32,bytes32)": {
        "notice": "approves miniYak and unmoons mini Yak to Yak and burns mini Yak"
      }
    },
    "version": 1
  },
  "storageLayout": {
    "storage": [
      {
        "astId": 254,
        "contract": "contracts/core/MiniYak.sol:MiniYak",
        "label": "_balances",
        "offset": 0,
        "slot": "0",
        "type": "t_mapping(t_address,t_uint256)"
      },
      {
        "astId": 260,
        "contract": "contracts/core/MiniYak.sol:MiniYak",
        "label": "_allowances",
        "offset": 0,
        "slot": "1",
        "type": "t_mapping(t_address,t_mapping(t_address,t_uint256))"
      },
      {
        "astId": 262,
        "contract": "contracts/core/MiniYak.sol:MiniYak",
        "label": "_totalSupply",
        "offset": 0,
        "slot": "2",
        "type": "t_uint256"
      },
      {
        "astId": 264,
        "contract": "contracts/core/MiniYak.sol:MiniYak",
        "label": "_name",
        "offset": 0,
        "slot": "3",
        "type": "t_string_storage"
      },
      {
        "astId": 266,
        "contract": "contracts/core/MiniYak.sol:MiniYak",
        "label": "_symbol",
        "offset": 0,
        "slot": "4",
        "type": "t_string_storage"
      },
      {
        "astId": 882,
        "contract": "contracts/core/MiniYak.sol:MiniYak",
        "label": "_nonces",
        "offset": 0,
        "slot": "5",
        "type": "t_mapping(t_address,t_struct(Counter)1611_storage)"
      },
      {
        "astId": 25,
        "contract": "contracts/core/MiniYak.sol:MiniYak",
        "label": "YAK",
        "offset": 0,
        "slot": "6",
        "type": "t_address"
      }
    ],
    "types": {
      "t_address": {
        "encoding": "inplace",
        "label": "address",
        "numberOfBytes": "20"
      },
      "t_mapping(t_address,t_mapping(t_address,t_uint256))": {
        "encoding": "mapping",
        "key": "t_address",
        "label": "mapping(address => mapping(address => uint256))",
        "numberOfBytes": "32",
        "value": "t_mapping(t_address,t_uint256)"
      },
      "t_mapping(t_address,t_struct(Counter)1611_storage)": {
        "encoding": "mapping",
        "key": "t_address",
        "label": "mapping(address => struct Counters.Counter)",
        "numberOfBytes": "32",
        "value": "t_struct(Counter)1611_storage"
      },
      "t_mapping(t_address,t_uint256)": {
        "encoding": "mapping",
        "key": "t_address",
        "label": "mapping(address => uint256)",
        "numberOfBytes": "32",
        "value": "t_uint256"
      },
      "t_string_storage": {
        "encoding": "bytes",
        "label": "string",
        "numberOfBytes": "32"
      },
      "t_struct(Counter)1611_storage": {
        "encoding": "inplace",
        "label": "struct Counters.Counter",
        "members": [
          {
            "astId": 1610,
            "contract": "contracts/core/MiniYak.sol:MiniYak",
            "label": "_value",
            "offset": 0,
            "slot": "0",
            "type": "t_uint256"
          }
        ],
        "numberOfBytes": "32"
      },
      "t_uint256": {
        "encoding": "inplace",
        "label": "uint256",
        "numberOfBytes": "32"
      }
    }
  }
}