{
  "address": "0x5FbDB2315678afecb367f032d93F642f64180aa3",
  "abi": [
    {
      "inputs": [],
      "stateMutability": "nonpayable",
      "type": "constructor"
    },
    {
      "anonymous": false,
      "inputs": [
        {
          "indexed": true,
          "internalType": "address",
          "name": "owner",
          "type": "address"
        },
        {
          "indexed": true,
          "internalType": "address",
          "name": "spender",
          "type": "address"
        },
        {
          "indexed": false,
          "internalType": "uint256",
          "name": "value",
          "type": "uint256"
        }
      ],
      "name": "Approval",
      "type": "event"
    },
    {
      "anonymous": false,
      "inputs": [
        {
          "indexed": true,
          "internalType": "address",
          "name": "from",
          "type": "address"
        },
        {
          "indexed": true,
          "internalType": "address",
          "name": "to",
          "type": "address"
        },
        {
          "indexed": false,
          "internalType": "uint256",
          "name": "value",
          "type": "uint256"
        }
      ],
      "name": "Transfer",
      "type": "event"
    },
    {
      "inputs": [],
      "name": "DOMAIN_SEPARATOR",
      "outputs": [
        {
          "internalType": "bytes32",
          "name": "",
          "type": "bytes32"
        }
      ],
      "stateMutability": "view",
      "type": "function"
    },
    {
      "inputs": [],
      "name": "YAK",
      "outputs": [
        {
          "internalType": "address",
          "name": "",
          "type": "address"
        }
      ],
      "stateMutability": "view",
      "type": "function"
    },
    {
      "inputs": [
        {
          "internalType": "address",
          "name": "owner",
          "type": "address"
        },
        {
          "internalType": "address",
          "name": "spender",
          "type": "address"
        }
      ],
      "name": "allowance",
      "outputs": [
        {
          "internalType": "uint256",
          "name": "",
          "type": "uint256"
        }
      ],
      "stateMutability": "view",
      "type": "function"
    },
    {
      "inputs": [
        {
          "internalType": "address",
          "name": "spender",
          "type": "address"
        },
        {
          "internalType": "uint256",
          "name": "amount",
          "type": "uint256"
        }
      ],
      "name": "approve",
      "outputs": [
        {
          "internalType": "bool",
          "name": "",
          "type": "bool"
        }
      ],
      "stateMutability": "nonpayable",
      "type": "function"
    },
    {
      "inputs": [
        {
          "internalType": "address",
          "name": "account",
          "type": "address"
        }
      ],
      "name": "balanceOf",
      "outputs": [
        {
          "internalType": "uint256",
          "name": "",
          "type": "uint256"
        }
      ],
      "stateMutability": "view",
      "type": "function"
    },
    {
      "inputs": [],
      "name": "decimals",
      "outputs": [
        {
          "internalType": "uint8",
          "name": "",
          "type": "uint8"
        }
      ],
      "stateMutability": "pure",
      "type": "function"
    },
    {
      "inputs": [
        {
          "internalType": "address",
          "name": "spender",
          "type": "address"
        },
        {
          "internalType": "uint256",
          "name": "subtractedValue",
          "type": "uint256"
        }
      ],
      "name": "decreaseAllowance",
      "outputs": [
        {
          "internalType": "bool",
          "name": "",
          "type": "bool"
        }
      ],
      "stateMutability": "nonpayable",
      "type": "function"
    },
    {
      "inputs": [
        {
          "internalType": "address",
          "name": "spender",
          "type": "address"
        },
        {
          "internalType": "uint256",
          "name": "addedValue",
          "type": "uint256"
        }
      ],
      "name": "increaseAllowance",
      "outputs": [
        {
          "internalType": "bool",
          "name": "",
          "type": "bool"
        }
      ],
      "stateMutability": "nonpayable",
      "type": "function"
    },
    {
      "inputs": [
        {
          "internalType": "uint256",
          "name": "amount",
          "type": "uint256"
        },
        {
          "internalType": "address",
          "name": "to",
          "type": "address"
        }
      ],
      "name": "moon",
      "outputs": [],
      "stateMutability": "nonpayable",
      "type": "function"
    },
    {
      "inputs": [
        {
          "internalType": "uint256",
          "name": "amount",
          "type": "uint256"
        },
        {
          "internalType": "address",
          "name": "to",
          "type": "address"
        },
        {
          "internalType": "uint256",
          "name": "deadline",
          "type": "uint256"
        },
        {
          "internalType": "uint8",
          "name": "v",
          "type": "uint8"
        },
        {
          "internalType": "bytes32",
          "name": "r",
          "type": "bytes32"
        },
        {
          "internalType": "bytes32",
          "name": "s",
          "type": "bytes32"
        }
      ],
      "name": "moonWithPermit",
      "outputs": [],
      "stateMutability": "nonpayable",
      "type": "function"
    },
    {
      "inputs": [],
      "name": "name",
      "outputs": [
        {
          "internalType": "string",
          "name": "",
          "type": "string"
        }
      ],
      "stateMutability": "view",
      "type": "function"
    },
    {
      "inputs": [
        {
          "internalType": "address",
          "name": "owner",
          "type": "address"
        }
      ],
      "name": "nonces",
      "outputs": [
        {
          "internalType": "uint256",
          "name": "",
          "type": "uint256"
        }
      ],
      "stateMutability": "view",
      "type": "function"
    },
    {
      "inputs": [
        {
          "internalType": "address",
          "name": "owner",
          "type": "address"
        },
        {
          "internalType": "address",
          "name": "spender",
          "type": "address"
        },
        {
          "internalType": "uint256",
          "name": "value",
          "type": "uint256"
        },
        {
          "internalType": "uint256",
          "name": "deadline",
          "type": "uint256"
        },
        {
          "internalType": "uint8",
          "name": "v",
          "type": "uint8"
        },
        {
          "internalType": "bytes32",
          "name": "r",
          "type": "bytes32"
        },
        {
          "internalType": "bytes32",
          "name": "s",
          "type": "bytes32"
        }
      ],
      "name": "permit",
      "outputs": [],
      "stateMutability": "nonpayable",
      "type": "function"
    },
    {
      "inputs": [],
      "name": "symbol",
      "outputs": [
        {
          "internalType": "string",
          "name": "",
          "type": "string"
        }
      ],
      "stateMutability": "view",
      "type": "function"
    },
    {
      "inputs": [],
      "name": "totalSupply",
      "outputs": [
        {
          "internalType": "uint256",
          "name": "",
          "type": "uint256"
        }
      ],
      "stateMutability": "view",
      "type": "function"
    },
    {
      "inputs": [
        {
          "internalType": "address",
          "name": "recipient",
          "type": "address"
        },
        {
          "internalType": "uint256",
          "name": "amount",
          "type": "uint256"
        }
      ],
      "name": "transfer",
      "outputs": [
        {
          "internalType": "bool",
          "name": "",
          "type": "bool"
        }
      ],
      "stateMutability": "nonpayable",
      "type": "function"
    },
    {
      "inputs": [
        {
          "internalType": "address",
          "name": "sender",
          "type": "address"
        },
        {
          "internalType": "address",
          "name": "recipient",
          "type": "address"
        },
        {
          "internalType": "uint256",
          "name": "amount",
          "type": "uint256"
        }
      ],
      "name": "transferFrom",
      "outputs": [
        {
          "internalType": "bool",
          "name": "",
          "type": "bool"
        }
      ],
      "stateMutability": "nonpayable",
      "type": "function"
    },
    {
      "inputs": [
        {
          "internalType": "uint256",
          "name": "amount",
          "type": "uint256"
        },
        {
          "internalType": "address",
          "name": "to",
          "type": "address"
        }
      ],
      "name": "unmoon",
      "outputs": [],
      "stateMutability": "nonpayable",
      "type": "function"
    }
  ],
  "transactionHash": "0x196667df46b6042e26ee10517ce362b653e0588bcc5dc7d6316650851fbfcfc6",
  "args": [],
  "solcInputHash": "676141a62d53ed9e8847352653916514",
  "bytecode": "0x6101406040527f6e71edae12b1b97f4d1f60370fef10105fa2faae0126114a169c64845d6126c9610120908152507359414b3089ce2af0010e7523dea7e2b35d776ec7600660006101000a81548173ffffffffffffffffffffffffffffffffffffffff021916908373ffffffffffffffffffffffffffffffffffffffff1602179055503480156200008f57600080fd5b506040518060400160405280600781526020017f4d696e6959616b00000000000000000000000000000000000000000000000000815250806040518060400160405280600181526020017f31000000000000000000000000000000000000000000000000000000000000008152506040518060400160405280600781526020017f4d696e6959414b000000000000000000000000000000000000000000000000008152506040518060400160405280600481526020017f6d59414b000000000000000000000000000000000000000000000000000000008152508160039080519060200190620001819291906200025d565b5080600490805190602001906200019a9291906200025d565b50505060008280519060200120905060008280519060200120905060007f8b73c3c69bb8fe3d512ecc4cf759cc79239f7b179b0ffacaa9a75d522b39400f90508260c081815250508160e081815250504660a08181525050620002058184846200022160201b60201c565b608081815250508061010081815250505050505050506200044a565b600083838346306040516020016200023e95949392919062000340565b6040516020818303038152906040528051906020012090509392505050565b8280546200026b90620003e5565b90600052602060002090601f0160209004810192826200028f5760008555620002db565b82601f10620002aa57805160ff1916838001178555620002db565b82800160010185558215620002db579182015b82811115620002da578251825591602001919060010190620002bd565b5b509050620002ea9190620002ee565b5090565b5b8082111562000309576000816000905550600101620002ef565b5090565b62000318816200039d565b82525050565b6200032981620003b1565b82525050565b6200033a81620003db565b82525050565b600060a0820190506200035760008301886200031e565b6200036660208301876200031e565b6200037560408301866200031e565b6200038460608301856200032f565b6200039360808301846200030d565b9695505050505050565b6000620003aa82620003bb565b9050919050565b6000819050919050565b600073ffffffffffffffffffffffffffffffffffffffff82169050919050565b6000819050919050565b60006002820490506001821680620003fe57607f821691505b602082108114156200041557620004146200041b565b5b50919050565b7f4e487b7100000000000000000000000000000000000000000000000000000000600052602260045260246000fd5b60805160a05160c05160e051610100516101205161332a6200049a6000396000610c90015260006112bd015260006112ff015260006112de0152600061126a01526000611292015261332a6000f3fe608060405234801561001057600080fd5b50600436106101165760003560e01c80637ecebe00116100a2578063a9059cbb11610071578063a9059cbb14610309578063cabcc3e914610339578063cfdc463e14610355578063d505accf14610373578063dd62ed3e1461038f57610116565b80637ecebe001461026f5780638ac5776b1461029f57806395d89b41146102bb578063a457c2d7146102d957610116565b8063313ce567116100e9578063313ce567146101b75780633644e515146101d557806339509351146101f3578063559540931461022357806370a082311461023f57610116565b806306fdde031461011b578063095ea7b31461013957806318160ddd1461016957806323b872dd14610187575b600080fd5b6101236103bf565b60405161013091906128a3565b60405180910390f35b610153600480360381019061014e9190612161565b610451565b6040516101609190612774565b60405180910390f35b61017161046f565b60405161017e9190612b25565b60405180910390f35b6101a1600480360381019061019c9190612074565b610479565b6040516101ae9190612774565b60405180910390f35b6101bf610571565b6040516101cc9190612b40565b60405180910390f35b6101dd61057a565b6040516101ea919061278f565b60405180910390f35b61020d60048036038101906102089190612161565b610589565b60405161021a9190612774565b60405180910390f35b61023d600480360381019061023891906121ef565b610635565b005b6102596004803603810190610254919061200f565b61074b565b6040516102669190612b25565b60405180910390f35b6102896004803603810190610284919061200f565b610793565b6040516102969190612b25565b60405180910390f35b6102b960048036038101906102b4919061222b565b6107e3565b005b6102c3610996565b6040516102d091906128a3565b60405180910390f35b6102f360048036038101906102ee9190612161565b610a28565b6040516103009190612774565b60405180910390f35b610323600480360381019061031e9190612161565b610b13565b6040516103309190612774565b60405180910390f35b610353600480360381019061034e91906121ef565b610b31565b005b61035d610c23565b60405161036a919061268a565b60405180910390f35b61038d600480360381019061038891906120c3565b610c49565b005b6103a960048036038101906103a49190612038565b610d8b565b6040516103b69190612b25565b60405180910390f35b6060600380546103ce90612cb4565b80601f01602080910402602001604051908101604052809291908181526020018280546103fa90612cb4565b80156104475780601f1061041c57610100808354040283529160200191610447565b820191906000526020600020905b81548152906001019060200180831161042a57829003601f168201915b5050505050905090565b600061046561045e610e12565b8484610e1a565b6001905092915050565b6000600254905090565b6000610486848484610fe5565b6000600160008673ffffffffffffffffffffffffffffffffffffffff1673ffffffffffffffffffffffffffffffffffffffff16815260200190815260200160002060006104d1610e12565b73ffffffffffffffffffffffffffffffffffffffff1673ffffffffffffffffffffffffffffffffffffffff16815260200190815260200160002054905082811015610551576040517f08c379a000000000000000000000000000000000000000000000000000000000815260040161054890612a25565b60405180910390fd5b6105658561055d610e12565b858403610e1a565b60019150509392505050565b6000600c905090565b6000610584611266565b905090565b600061062b610596610e12565b8484600160006105a4610e12565b73ffffffffffffffffffffffffffffffffffffffff1673ffffffffffffffffffffffffffffffffffffffff16815260200190815260200160002060008873ffffffffffffffffffffffffffffffffffffffff1673ffffffffffffffffffffffffffffffffffffffff168152602001908152602001600020546106269190612b98565b610e1a565b6001905092915050565b60006106eb83600660009054906101000a900473ffffffffffffffffffffffffffffffffffffffff1673ffffffffffffffffffffffffffffffffffffffff166370a08231336040518263ffffffff1660e01b8152600401610696919061268a565b60206040518083038186803b1580156106ae57600080fd5b505afa1580156106c2573d6000803e3d6000fd5b505050506040513d601f19601f820116820180604052508101906106e691906121c6565b611329565b905061073c333083600660009054906101000a900473ffffffffffffffffffffffffffffffffffffffff1673ffffffffffffffffffffffffffffffffffffffff16611342909392919063ffffffff16565b61074682826113cb565b505050565b60008060008373ffffffffffffffffffffffffffffffffffffffff1673ffffffffffffffffffffffffffffffffffffffff168152602001908152602001600020549050919050565b60006107dc600560008473ffffffffffffffffffffffffffffffffffffffff1673ffffffffffffffffffffffffffffffffffffffff16815260200190815260200160002061152b565b9050919050565b600660009054906101000a900473ffffffffffffffffffffffffffffffffffffffff1673ffffffffffffffffffffffffffffffffffffffff1663d505accf333089888888886040518863ffffffff1660e01b815260040161084a97969594939291906126dc565b600060405180830381600087803b15801561086457600080fd5b505af1158015610878573d6000803e3d6000fd5b50505050600061093287600660009054906101000a900473ffffffffffffffffffffffffffffffffffffffff1673ffffffffffffffffffffffffffffffffffffffff166370a08231336040518263ffffffff1660e01b81526004016108dd919061268a565b60206040518083038186803b1580156108f557600080fd5b505afa158015610909573d6000803e3d6000fd5b505050506040513d601f19601f8201168201806040525081019061092d91906121c6565b611329565b9050610983333083600660009054906101000a900473ffffffffffffffffffffffffffffffffffffffff1673ffffffffffffffffffffffffffffffffffffffff16611342909392919063ffffffff16565b61098d86826113cb565b50505050505050565b6060600480546109a590612cb4565b80601f01602080910402602001604051908101604052809291908181526020018280546109d190612cb4565b8015610a1e5780601f106109f357610100808354040283529160200191610a1e565b820191906000526020600020905b815481529060010190602001808311610a0157829003601f168201915b5050505050905090565b60008060016000610a37610e12565b73ffffffffffffffffffffffffffffffffffffffff1673ffffffffffffffffffffffffffffffffffffffff16815260200190815260200160002060008573ffffffffffffffffffffffffffffffffffffffff1673ffffffffffffffffffffffffffffffffffffffff16815260200190815260200160002054905082811015610af4576040517f08c379a0000000000000000000000000000000000000000000000000000000008152600401610aeb90612ae5565b60405180910390fd5b610b08610aff610e12565b85858403610e1a565b600191505092915050565b6000610b27610b20610e12565b8484610fe5565b6001905092915050565b6000610bc5833073ffffffffffffffffffffffffffffffffffffffff166370a08231336040518263ffffffff1660e01b8152600401610b70919061268a565b60206040518083038186803b158015610b8857600080fd5b505afa158015610b9c573d6000803e3d6000fd5b505050506040513d601f19601f82011682018060405250810190610bc091906121c6565b611329565b9050610bd13382611539565b610c1e8282600660009054906101000a900473ffffffffffffffffffffffffffffffffffffffff1673ffffffffffffffffffffffffffffffffffffffff166117109092919063ffffffff16565b505050565b600660009054906101000a900473ffffffffffffffffffffffffffffffffffffffff1681565b83421115610c8c576040517f08c379a0000000000000000000000000000000000000000000000000000000008152600401610c8390612965565b60405180910390fd5b60007f0000000000000000000000000000000000000000000000000000000000000000888888610cbb8c611796565b89604051602001610cd1969594939291906127aa565b6040516020818303038152906040528051906020012090506000610cf4826117f4565b90506000610d048287878761180e565b90508973ffffffffffffffffffffffffffffffffffffffff168173ffffffffffffffffffffffffffffffffffffffff1614610d74576040517f08c379a0000000000000000000000000000000000000000000000000000000008152600401610d6b90612a05565b60405180910390fd5b610d7f8a8a8a610e1a565b50505050505050505050565b6000600160008473ffffffffffffffffffffffffffffffffffffffff1673ffffffffffffffffffffffffffffffffffffffff16815260200190815260200160002060008373ffffffffffffffffffffffffffffffffffffffff1673ffffffffffffffffffffffffffffffffffffffff16815260200190815260200160002054905092915050565b600033905090565b600073ffffffffffffffffffffffffffffffffffffffff168373ffffffffffffffffffffffffffffffffffffffff161415610e8a576040517f08c379a0000000000000000000000000000000000000000000000000000000008152600401610e8190612a85565b60405180910390fd5b600073ffffffffffffffffffffffffffffffffffffffff168273ffffffffffffffffffffffffffffffffffffffff161415610efa576040517f08c379a0000000000000000000000000000000000000000000000000000000008152600401610ef190612945565b60405180910390fd5b80600160008573ffffffffffffffffffffffffffffffffffffffff1673ffffffffffffffffffffffffffffffffffffffff16815260200190815260200160002060008473ffffffffffffffffffffffffffffffffffffffff1673ffffffffffffffffffffffffffffffffffffffff168152602001908152602001600020819055508173ffffffffffffffffffffffffffffffffffffffff168373ffffffffffffffffffffffffffffffffffffffff167f8c5be1e5ebec7d5bd14f71427d1e84f3dd0314c0f7b2291e5b200ac8c7c3b92583604051610fd89190612b25565b60405180910390a3505050565b600073ffffffffffffffffffffffffffffffffffffffff168373ffffffffffffffffffffffffffffffffffffffff161415611055576040517f08c379a000000000000000000000000000000000000000000000000000000000815260040161104c90612a65565b60405180910390fd5b600073ffffffffffffffffffffffffffffffffffffffff168273ffffffffffffffffffffffffffffffffffffffff1614156110c5576040517f08c379a00000000000000000000000000000000000000000000000000000000081526004016110bc906128e5565b60405180910390fd5b6110d0838383611839565b60008060008573ffffffffffffffffffffffffffffffffffffffff1673ffffffffffffffffffffffffffffffffffffffff16815260200190815260200160002054905081811015611156576040517f08c379a000000000000000000000000000000000000000000000000000000000815260040161114d90612985565b60405180910390fd5b8181036000808673ffffffffffffffffffffffffffffffffffffffff1673ffffffffffffffffffffffffffffffffffffffff16815260200190815260200160002081905550816000808573ffffffffffffffffffffffffffffffffffffffff1673ffffffffffffffffffffffffffffffffffffffff16815260200190815260200160002060008282546111e99190612b98565b925050819055508273ffffffffffffffffffffffffffffffffffffffff168473ffffffffffffffffffffffffffffffffffffffff167fddf252ad1be2c89b69c2b068fc378daa952ba7f163c4a11628f55a4df523b3ef8460405161124d9190612b25565b60405180910390a361126084848461183e565b50505050565b60007f00000000000000000000000000000000000000000000000000000000000000004614156112b8577f00000000000000000000000000000000000000000000000000000000000000009050611326565b6113237f00000000000000000000000000000000000000000000000000000000000000007f00000000000000000000000000000000000000000000000000000000000000007f0000000000000000000000000000000000000000000000000000000000000000611843565b90505b90565b6000818310611338578161133a565b825b905092915050565b6113c5846323b872dd60e01b858585604051602401611363939291906126a5565b604051602081830303815290604052907bffffffffffffffffffffffffffffffffffffffffffffffffffffffff19166020820180517bffffffffffffffffffffffffffffffffffffffffffffffffffffffff838183161783525050505061187d565b50505050565b600073ffffffffffffffffffffffffffffffffffffffff168273ffffffffffffffffffffffffffffffffffffffff16141561143b576040517f08c379a000000000000000000000000000000000000000000000000000000000815260040161143290612b05565b60405180910390fd5b61144760008383611839565b80600260008282546114599190612b98565b92505081905550806000808473ffffffffffffffffffffffffffffffffffffffff1673ffffffffffffffffffffffffffffffffffffffff16815260200190815260200160002060008282546114ae9190612b98565b925050819055508173ffffffffffffffffffffffffffffffffffffffff16600073ffffffffffffffffffffffffffffffffffffffff167fddf252ad1be2c89b69c2b068fc378daa952ba7f163c4a11628f55a4df523b3ef836040516115139190612b25565b60405180910390a36115276000838361183e565b5050565b600081600001549050919050565b600073ffffffffffffffffffffffffffffffffffffffff168273ffffffffffffffffffffffffffffffffffffffff1614156115a9576040517f08c379a00000000000000000000000000000000000000000000000000000000081526004016115a090612a45565b60405180910390fd5b6115b582600083611839565b60008060008473ffffffffffffffffffffffffffffffffffffffff1673ffffffffffffffffffffffffffffffffffffffff1681526020019081526020016000205490508181101561163b576040517f08c379a000000000000000000000000000000000000000000000000000000000815260040161163290612905565b60405180910390fd5b8181036000808573ffffffffffffffffffffffffffffffffffffffff1673ffffffffffffffffffffffffffffffffffffffff1681526020019081526020016000208190555081600260008282546116929190612bee565b92505081905550600073ffffffffffffffffffffffffffffffffffffffff168373ffffffffffffffffffffffffffffffffffffffff167fddf252ad1be2c89b69c2b068fc378daa952ba7f163c4a11628f55a4df523b3ef846040516116f79190612b25565b60405180910390a361170b8360008461183e565b505050565b6117918363a9059cbb60e01b848460405160240161172f92919061274b565b604051602081830303815290604052907bffffffffffffffffffffffffffffffffffffffffffffffffffffffff19166020820180517bffffffffffffffffffffffffffffffffffffffffffffffffffffffff838183161783525050505061187d565b505050565b600080600560008473ffffffffffffffffffffffffffffffffffffffff1673ffffffffffffffffffffffffffffffffffffffff16815260200190815260200160002090506117e38161152b565b91506117ee81611944565b50919050565b6000611807611801611266565b8361195a565b9050919050565b600080600061181f8787878761198d565b9150915061182c81611a9a565b8192505050949350505050565b505050565b505050565b6000838383463060405160200161185e95949392919061280b565b6040516020818303038152906040528051906020012090509392505050565b60006118df826040518060400160405280602081526020017f5361666545524332303a206c6f772d6c6576656c2063616c6c206661696c65648152508573ffffffffffffffffffffffffffffffffffffffff16611deb9092919063ffffffff16565b905060008151111561193f57808060200190518101906118ff919061219d565b61193e576040517f08c379a000000000000000000000000000000000000000000000000000000000815260040161193590612ac5565b60405180910390fd5b5b505050565b6001816000016000828254019250508190555050565b6000828260405160200161196f929190612653565b60405160208183030381529060405280519060200120905092915050565b6000807f7fffffffffffffffffffffffffffffff5d576e7357a4501ddfe92f46681b20a08360001c11156119c8576000600391509150611a91565b601b8560ff16141580156119e05750601c8560ff1614155b156119f2576000600491509150611a91565b600060018787878760405160008152602001604052604051611a17949392919061285e565b6020604051602081039080840390855afa158015611a39573d6000803e3d6000fd5b505050602060405103519050600073ffffffffffffffffffffffffffffffffffffffff168173ffffffffffffffffffffffffffffffffffffffff161415611a8857600060019250925050611a91565b80600092509250505b94509492505050565b60006004811115611ad4577f4e487b7100000000000000000000000000000000000000000000000000000000600052602160045260246000fd5b816004811115611b0d577f4e487b7100000000000000000000000000000000000000000000000000000000600052602160045260246000fd5b1415611b1857611de8565b60016004811115611b52577f4e487b7100000000000000000000000000000000000000000000000000000000600052602160045260246000fd5b816004811115611b8b577f4e487b7100000000000000000000000000000000000000000000000000000000600052602160045260246000fd5b1415611bcc576040517f08c379a0000000000000000000000000000000000000000000000000000000008152600401611bc3906128c5565b60405180910390fd5b60026004811115611c06577f4e487b7100000000000000000000000000000000000000000000000000000000600052602160045260246000fd5b816004811115611c3f577f4e487b7100000000000000000000000000000000000000000000000000000000600052602160045260246000fd5b1415611c80576040517f08c379a0000000000000000000000000000000000000000000000000000000008152600401611c7790612925565b60405180910390fd5b60036004811115611cba577f4e487b7100000000000000000000000000000000000000000000000000000000600052602160045260246000fd5b816004811115611cf3577f4e487b7100000000000000000000000000000000000000000000000000000000600052602160045260246000fd5b1415611d34576040517f08c379a0000000000000000000000000000000000000000000000000000000008152600401611d2b906129a5565b60405180910390fd5b600480811115611d6d577f4e487b7100000000000000000000000000000000000000000000000000000000600052602160045260246000fd5b816004811115611da6577f4e487b7100000000000000000000000000000000000000000000000000000000600052602160045260246000fd5b1415611de7576040517f08c379a0000000000000000000000000000000000000000000000000000000008152600401611dde906129e5565b60405180910390fd5b5b50565b6060611dfa8484600085611e03565b90509392505050565b606082471015611e48576040517f08c379a0000000000000000000000000000000000000000000000000000000008152600401611e3f906129c5565b60405180910390fd5b611e5185611f17565b611e90576040517f08c379a0000000000000000000000000000000000000000000000000000000008152600401611e8790612aa5565b60405180910390fd5b6000808673ffffffffffffffffffffffffffffffffffffffff168587604051611eb9919061263c565b60006040518083038185875af1925050503d8060008114611ef6576040519150601f19603f3d011682016040523d82523d6000602084013e611efb565b606091505b5091509150611f0b828286611f2a565b92505050949350505050565b600080823b905060008111915050919050565b60608315611f3a57829050611f8a565b600083511115611f4d5782518084602001fd5b816040517f08c379a0000000000000000000000000000000000000000000000000000000008152600401611f8191906128a3565b60405180910390fd5b9392505050565b600081359050611fa081613281565b92915050565b600081519050611fb581613298565b92915050565b600081359050611fca816132af565b92915050565b600081359050611fdf816132c6565b92915050565b600081519050611ff4816132c6565b92915050565b600081359050612009816132dd565b92915050565b60006020828403121561202157600080fd5b600061202f84828501611f91565b91505092915050565b6000806040838503121561204b57600080fd5b600061205985828601611f91565b925050602061206a85828601611f91565b9150509250929050565b60008060006060848603121561208957600080fd5b600061209786828701611f91565b93505060206120a886828701611f91565b92505060406120b986828701611fd0565b9150509250925092565b600080600080600080600060e0888a0312156120de57600080fd5b60006120ec8a828b01611f91565b97505060206120fd8a828b01611f91565b965050604061210e8a828b01611fd0565b955050606061211f8a828b01611fd0565b94505060806121308a828b01611ffa565b93505060a06121418a828b01611fbb565b92505060c06121528a828b01611fbb565b91505092959891949750929550565b6000806040838503121561217457600080fd5b600061218285828601611f91565b925050602061219385828601611fd0565b9150509250929050565b6000602082840312156121af57600080fd5b60006121bd84828501611fa6565b91505092915050565b6000602082840312156121d857600080fd5b60006121e684828501611fe5565b91505092915050565b6000806040838503121561220257600080fd5b600061221085828601611fd0565b925050602061222185828601611f91565b9150509250929050565b60008060008060008060c0878903121561224457600080fd5b600061225289828a01611fd0565b965050602061226389828a01611f91565b955050604061227489828a01611fd0565b945050606061228589828a01611ffa565b935050608061229689828a01611fbb565b92505060a06122a789828a01611fbb565b9150509295509295509295565b6122bd81612c22565b82525050565b6122cc81612c34565b82525050565b6122db81612c40565b82525050565b6122f26122ed82612c40565b612ce6565b82525050565b600061230382612b5b565b61230d8185612b71565b935061231d818560208601612c81565b80840191505092915050565b600061233482612b66565b61233e8185612b7c565b935061234e818560208601612c81565b61235781612d4e565b840191505092915050565b600061236f601883612b7c565b915061237a82612d5f565b602082019050919050565b6000612392602383612b7c565b915061239d82612d88565b604082019050919050565b60006123b5602283612b7c565b91506123c082612dd7565b604082019050919050565b60006123d8601f83612b7c565b91506123e382612e26565b602082019050919050565b60006123fb602283612b7c565b915061240682612e4f565b604082019050919050565b600061241e600283612b8d565b915061242982612e9e565b600282019050919050565b6000612441601d83612b7c565b915061244c82612ec7565b602082019050919050565b6000612464602683612b7c565b915061246f82612ef0565b604082019050919050565b6000612487602283612b7c565b915061249282612f3f565b604082019050919050565b60006124aa602683612b7c565b91506124b582612f8e565b604082019050919050565b60006124cd602283612b7c565b91506124d882612fdd565b604082019050919050565b60006124f0601e83612b7c565b91506124fb8261302c565b602082019050919050565b6000612513602883612b7c565b915061251e82613055565b604082019050919050565b6000612536602183612b7c565b9150612541826130a4565b604082019050919050565b6000612559602583612b7c565b9150612564826130f3565b604082019050919050565b600061257c602483612b7c565b915061258782613142565b604082019050919050565b600061259f601d83612b7c565b91506125aa82613191565b602082019050919050565b60006125c2602a83612b7c565b91506125cd826131ba565b604082019050919050565b60006125e5602583612b7c565b91506125f082613209565b604082019050919050565b6000612608601f83612b7c565b915061261382613258565b602082019050919050565b61262781612c6a565b82525050565b61263681612c74565b82525050565b600061264882846122f8565b915081905092915050565b600061265e82612411565b915061266a82856122e1565b60208201915061267a82846122e1565b6020820191508190509392505050565b600060208201905061269f60008301846122b4565b92915050565b60006060820190506126ba60008301866122b4565b6126c760208301856122b4565b6126d4604083018461261e565b949350505050565b600060e0820190506126f1600083018a6122b4565b6126fe60208301896122b4565b61270b604083018861261e565b612718606083018761261e565b612725608083018661262d565b61273260a08301856122d2565b61273f60c08301846122d2565b98975050505050505050565b600060408201905061276060008301856122b4565b61276d602083018461261e565b9392505050565b600060208201905061278960008301846122c3565b92915050565b60006020820190506127a460008301846122d2565b92915050565b600060c0820190506127bf60008301896122d2565b6127cc60208301886122b4565b6127d960408301876122b4565b6127e6606083018661261e565b6127f3608083018561261e565b61280060a083018461261e565b979650505050505050565b600060a08201905061282060008301886122d2565b61282d60208301876122d2565b61283a60408301866122d2565b612847606083018561261e565b61285460808301846122b4565b9695505050505050565b600060808201905061287360008301876122d2565b612880602083018661262d565b61288d60408301856122d2565b61289a60608301846122d2565b95945050505050565b600060208201905081810360008301526128bd8184612329565b905092915050565b600060208201905081810360008301526128de81612362565b9050919050565b600060208201905081810360008301526128fe81612385565b9050919050565b6000602082019050818103600083015261291e816123a8565b9050919050565b6000602082019050818103600083015261293e816123cb565b9050919050565b6000602082019050818103600083015261295e816123ee565b9050919050565b6000602082019050818103600083015261297e81612434565b9050919050565b6000602082019050818103600083015261299e81612457565b9050919050565b600060208201905081810360008301526129be8161247a565b9050919050565b600060208201905081810360008301526129de8161249d565b9050919050565b600060208201905081810360008301526129fe816124c0565b9050919050565b60006020820190508181036000830152612a1e816124e3565b9050919050565b60006020820190508181036000830152612a3e81612506565b9050919050565b60006020820190508181036000830152612a5e81612529565b9050919050565b60006020820190508181036000830152612a7e8161254c565b9050919050565b60006020820190508181036000830152612a9e8161256f565b9050919050565b60006020820190508181036000830152612abe81612592565b9050919050565b60006020820190508181036000830152612ade816125b5565b9050919050565b60006020820190508181036000830152612afe816125d8565b9050919050565b60006020820190508181036000830152612b1e816125fb565b9050919050565b6000602082019050612b3a600083018461261e565b92915050565b6000602082019050612b55600083018461262d565b92915050565b600081519050919050565b600081519050919050565b600081905092915050565b600082825260208201905092915050565b600081905092915050565b6000612ba382612c6a565b9150612bae83612c6a565b9250827fffffffffffffffffffffffffffffffffffffffffffffffffffffffffffffffff03821115612be357612be2612cf0565b5b828201905092915050565b6000612bf982612c6a565b9150612c0483612c6a565b925082821015612c1757612c16612cf0565b5b828203905092915050565b6000612c2d82612c4a565b9050919050565b60008115159050919050565b6000819050919050565b600073ffffffffffffffffffffffffffffffffffffffff82169050919050565b6000819050919050565b600060ff82169050919050565b60005b83811015612c9f578082015181840152602081019050612c84565b83811115612cae576000848401525b50505050565b60006002820490506001821680612ccc57607f821691505b60208210811415612ce057612cdf612d1f565b5b50919050565b6000819050919050565b7f4e487b7100000000000000000000000000000000000000000000000000000000600052601160045260246000fd5b7f4e487b7100000000000000000000000000000000000000000000000000000000600052602260045260246000fd5b6000601f19601f8301169050919050565b7f45434453413a20696e76616c6964207369676e61747572650000000000000000600082015250565b7f45524332303a207472616e7366657220746f20746865207a65726f206164647260008201527f6573730000000000000000000000000000000000000000000000000000000000602082015250565b7f45524332303a206275726e20616d6f756e7420657863656564732062616c616e60008201527f6365000000000000000000000000000000000000000000000000000000000000602082015250565b7f45434453413a20696e76616c6964207369676e6174757265206c656e67746800600082015250565b7f45524332303a20617070726f766520746f20746865207a65726f20616464726560008201527f7373000000000000000000000000000000000000000000000000000000000000602082015250565b7f1901000000000000000000000000000000000000000000000000000000000000600082015250565b7f45524332305065726d69743a206578706972656420646561646c696e65000000600082015250565b7f45524332303a207472616e7366657220616d6f756e742065786365656473206260008201527f616c616e63650000000000000000000000000000000000000000000000000000602082015250565b7f45434453413a20696e76616c6964207369676e6174757265202773272076616c60008201527f7565000000000000000000000000000000000000000000000000000000000000602082015250565b7f416464726573733a20696e73756666696369656e742062616c616e636520666f60008201527f722063616c6c0000000000000000000000000000000000000000000000000000602082015250565b7f45434453413a20696e76616c6964207369676e6174757265202776272076616c60008201527f7565000000000000000000000000000000000000000000000000000000000000602082015250565b7f45524332305065726d69743a20696e76616c6964207369676e61747572650000600082015250565b7f45524332303a207472616e7366657220616d6f756e742065786365656473206160008201527f6c6c6f77616e6365000000000000000000000000000000000000000000000000602082015250565b7f45524332303a206275726e2066726f6d20746865207a65726f2061646472657360008201527f7300000000000000000000000000000000000000000000000000000000000000602082015250565b7f45524332303a207472616e736665722066726f6d20746865207a65726f20616460008201527f6472657373000000000000000000000000000000000000000000000000000000602082015250565b7f45524332303a20617070726f76652066726f6d20746865207a65726f2061646460008201527f7265737300000000000000000000000000000000000000000000000000000000602082015250565b7f416464726573733a2063616c6c20746f206e6f6e2d636f6e7472616374000000600082015250565b7f5361666545524332303a204552433230206f7065726174696f6e20646964206e60008201527f6f74207375636365656400000000000000000000000000000000000000000000602082015250565b7f45524332303a2064656372656173656420616c6c6f77616e63652062656c6f7760008201527f207a65726f000000000000000000000000000000000000000000000000000000602082015250565b7f45524332303a206d696e7420746f20746865207a65726f206164647265737300600082015250565b61328a81612c22565b811461329557600080fd5b50565b6132a181612c34565b81146132ac57600080fd5b50565b6132b881612c40565b81146132c357600080fd5b50565b6132cf81612c6a565b81146132da57600080fd5b50565b6132e681612c74565b81146132f157600080fd5b5056fea2646970667358221220d9aebefb4e0374d8041b67a41cd25f5dc976199e34056067767660c917bd8d9664736f6c63430008020033",
  "devdoc": {
    "kind": "dev",
    "methods": {
      "DOMAIN_SEPARATOR()": {
        "details": "See {IERC20Permit-DOMAIN_SEPARATOR}."
      },
      "allowance(address,address)": {
        "details": "See {IERC20-allowance}."
      },
      "approve(address,uint256)": {
        "details": "See {IERC20-approve}. Requirements: - `spender` cannot be the zero address."
      },
      "balanceOf(address)": {
        "details": "See {IERC20-balanceOf}."
      },
      "decimals()": {
        "details": "Returns the number of decimals used to get its user representation. For example, if `decimals` equals `2`, a balance of `505` tokens should be displayed to a user as `5,05` (`505 / 10 ** 2`)."
      },
      "decreaseAllowance(address,uint256)": {
        "details": "Atomically decreases the allowance granted to `spender` by the caller. This is an alternative to {approve} that can be used as a mitigation for problems described in {IERC20-approve}. Emits an {Approval} event indicating the updated allowance. Requirements: - `spender` cannot be the zero address. - `spender` must have allowance for the caller of at least `subtractedValue`."
      },
      "increaseAllowance(address,uint256)": {
        "details": "Atomically increases the allowance granted to `spender` by the caller. This is an alternative to {approve} that can be used as a mitigation for problems described in {IERC20-approve}. Emits an {Approval} event indicating the updated allowance. Requirements: - `spender` cannot be the zero address."
      },
      "moon(uint256,address)": {
        "params": {
          "amount": "amount of YAK that will be mooned",
          "to": "address of caller or the address to which miniYAK would be transferred to"
        }
      },
      "moonWithPermit(uint256,address,uint256,uint8,bytes32,bytes32)": {
        "params": {
          "amount": "amount of YAK that will be mooned",
          "to": "address of caller or the address to which miniYAK would be transferred to"
        }
      },
      "name()": {
        "details": "Returns the name of the token."
      },
      "nonces(address)": {
        "details": "See {IERC20Permit-nonces}."
      },
      "permit(address,address,uint256,uint256,uint8,bytes32,bytes32)": {
        "details": "See {IERC20Permit-permit}."
      },
      "symbol()": {
        "details": "Returns the symbol of the token, usually a shorter version of the name."
      },
      "totalSupply()": {
        "details": "See {IERC20-totalSupply}."
      },
      "transfer(address,uint256)": {
        "details": "See {IERC20-transfer}. Requirements: - `recipient` cannot be the zero address. - the caller must have a balance of at least `amount`."
      },
      "transferFrom(address,address,uint256)": {
        "details": "See {IERC20-transferFrom}. Emits an {Approval} event indicating the updated allowance. This is not required by the EIP. See the note at the beginning of {ERC20}. Requirements: - `sender` and `recipient` cannot be the zero address. - `sender` must have a balance of at least `amount`. - the caller must have allowance for ``sender``'s tokens of at least `amount`."
      },
      "unmoon(uint256,address)": {
        "params": {
          "amount": "amount of miniyak",
          "to": "address of caller or the address to which YAK would be transferred to"
        }
      }
    },
    "version": 1
  },
  "userdoc": {
    "kind": "user",
    "methods": {
      "moon(uint256,address)": {
        "notice": "moons Yak to mini Yak (mints mini Yak )"
      },
      "moonWithPermit(uint256,address,uint256,uint8,bytes32,bytes32)": {
        "notice": "approves contract and moons Yak to mini Yak (mints mini Yak )"
      },
      "unmoon(uint256,address)": {
        "notice": "unmoons mini Yak to Yak and burns mini Yak"
      }
    },
    "version": 1
  },
  "storageLayout": {
    "storage": [
      {
        "astId": 191,
        "contract": "contracts/core/MiniYak.sol:MiniYak",
        "label": "_balances",
        "offset": 0,
        "slot": "0",
        "type": "t_mapping(t_address,t_uint256)"
      },
      {
        "astId": 197,
        "contract": "contracts/core/MiniYak.sol:MiniYak",
        "label": "_allowances",
        "offset": 0,
        "slot": "1",
        "type": "t_mapping(t_address,t_mapping(t_address,t_uint256))"
      },
      {
        "astId": 199,
        "contract": "contracts/core/MiniYak.sol:MiniYak",
        "label": "_totalSupply",
        "offset": 0,
        "slot": "2",
        "type": "t_uint256"
      },
      {
        "astId": 201,
        "contract": "contracts/core/MiniYak.sol:MiniYak",
        "label": "_name",
        "offset": 0,
        "slot": "3",
        "type": "t_string_storage"
      },
      {
        "astId": 203,
        "contract": "contracts/core/MiniYak.sol:MiniYak",
        "label": "_symbol",
        "offset": 0,
        "slot": "4",
        "type": "t_string_storage"
      },
      {
        "astId": 819,
        "contract": "contracts/core/MiniYak.sol:MiniYak",
        "label": "_nonces",
        "offset": 0,
        "slot": "5",
        "type": "t_mapping(t_address,t_struct(Counter)1548_storage)"
      },
      {
        "astId": 25,
        "contract": "contracts/core/MiniYak.sol:MiniYak",
        "label": "YAK",
        "offset": 0,
        "slot": "6",
        "type": "t_address"
      }
    ],
    "types": {
      "t_address": {
        "encoding": "inplace",
        "label": "address",
        "numberOfBytes": "20"
      },
      "t_mapping(t_address,t_mapping(t_address,t_uint256))": {
        "encoding": "mapping",
        "key": "t_address",
        "label": "mapping(address => mapping(address => uint256))",
        "numberOfBytes": "32",
        "value": "t_mapping(t_address,t_uint256)"
      },
      "t_mapping(t_address,t_struct(Counter)1548_storage)": {
        "encoding": "mapping",
        "key": "t_address",
        "label": "mapping(address => struct Counters.Counter)",
        "numberOfBytes": "32",
        "value": "t_struct(Counter)1548_storage"
      },
      "t_mapping(t_address,t_uint256)": {
        "encoding": "mapping",
        "key": "t_address",
        "label": "mapping(address => uint256)",
        "numberOfBytes": "32",
        "value": "t_uint256"
      },
      "t_string_storage": {
        "encoding": "bytes",
        "label": "string",
        "numberOfBytes": "32"
      },
      "t_struct(Counter)1548_storage": {
        "encoding": "inplace",
        "label": "struct Counters.Counter",
        "members": [
          {
            "astId": 1547,
            "contract": "contracts/core/MiniYak.sol:MiniYak",
            "label": "_value",
            "offset": 0,
            "slot": "0",
            "type": "t_uint256"
          }
        ],
        "numberOfBytes": "32"
      },
      "t_uint256": {
        "encoding": "inplace",
        "label": "uint256",
        "numberOfBytes": "32"
      }
    }
  }
}