{
  "address": "0xf7e9Fa54F7C988d985Bb9F3034691c72fbf705cA",
  "abi": [
    {
      "inputs": [],
      "stateMutability": "nonpayable",
      "type": "constructor"
    },
    {
      "anonymous": false,
      "inputs": [
        {
          "indexed": true,
          "internalType": "address",
          "name": "owner",
          "type": "address"
        },
        {
          "indexed": true,
          "internalType": "address",
          "name": "spender",
          "type": "address"
        },
        {
          "indexed": false,
          "internalType": "uint256",
          "name": "value",
          "type": "uint256"
        }
      ],
      "name": "Approval",
      "type": "event"
    },
    {
      "anonymous": false,
      "inputs": [
        {
          "indexed": true,
          "internalType": "address",
          "name": "from",
          "type": "address"
        },
        {
          "indexed": true,
          "internalType": "address",
          "name": "to",
          "type": "address"
        },
        {
          "indexed": false,
          "internalType": "uint256",
          "name": "value",
          "type": "uint256"
        }
      ],
      "name": "Transfer",
      "type": "event"
    },
    {
      "inputs": [],
      "name": "YAK",
      "outputs": [
        {
          "internalType": "address",
          "name": "",
          "type": "address"
        }
      ],
      "stateMutability": "view",
      "type": "function"
    },
    {
      "inputs": [
        {
          "internalType": "address",
          "name": "owner",
          "type": "address"
        },
        {
          "internalType": "address",
          "name": "spender",
          "type": "address"
        }
      ],
      "name": "allowance",
      "outputs": [
        {
          "internalType": "uint256",
          "name": "",
          "type": "uint256"
        }
      ],
      "stateMutability": "view",
      "type": "function"
    },
    {
      "inputs": [
        {
          "internalType": "address",
          "name": "spender",
          "type": "address"
        },
        {
          "internalType": "uint256",
          "name": "amount",
          "type": "uint256"
        }
      ],
      "name": "approve",
      "outputs": [
        {
          "internalType": "bool",
          "name": "",
          "type": "bool"
        }
      ],
      "stateMutability": "nonpayable",
      "type": "function"
    },
    {
      "inputs": [
        {
          "internalType": "address",
          "name": "account",
          "type": "address"
        }
      ],
      "name": "balanceOf",
      "outputs": [
        {
          "internalType": "uint256",
          "name": "",
          "type": "uint256"
        }
      ],
      "stateMutability": "view",
      "type": "function"
    },
    {
      "inputs": [],
      "name": "decimals",
      "outputs": [
        {
          "internalType": "uint8",
          "name": "",
          "type": "uint8"
        }
      ],
      "stateMutability": "pure",
      "type": "function"
    },
    {
      "inputs": [
        {
          "internalType": "address",
          "name": "spender",
          "type": "address"
        },
        {
          "internalType": "uint256",
          "name": "subtractedValue",
          "type": "uint256"
        }
      ],
      "name": "decreaseAllowance",
      "outputs": [
        {
          "internalType": "bool",
          "name": "",
          "type": "bool"
        }
      ],
      "stateMutability": "nonpayable",
      "type": "function"
    },
    {
      "inputs": [
        {
          "internalType": "address",
          "name": "spender",
          "type": "address"
        },
        {
          "internalType": "uint256",
          "name": "addedValue",
          "type": "uint256"
        }
      ],
      "name": "increaseAllowance",
      "outputs": [
        {
          "internalType": "bool",
          "name": "",
          "type": "bool"
        }
      ],
      "stateMutability": "nonpayable",
      "type": "function"
    },
    {
      "inputs": [
        {
          "internalType": "uint256",
          "name": "amount",
          "type": "uint256"
        },
        {
          "internalType": "address",
          "name": "to",
          "type": "address"
        }
      ],
      "name": "moon",
      "outputs": [],
      "stateMutability": "nonpayable",
      "type": "function"
    },
    {
      "inputs": [],
      "name": "name",
      "outputs": [
        {
          "internalType": "string",
          "name": "",
          "type": "string"
        }
      ],
      "stateMutability": "view",
      "type": "function"
    },
    {
      "inputs": [],
      "name": "symbol",
      "outputs": [
        {
          "internalType": "string",
          "name": "",
          "type": "string"
        }
      ],
      "stateMutability": "view",
      "type": "function"
    },
    {
      "inputs": [],
      "name": "totalSupply",
      "outputs": [
        {
          "internalType": "uint256",
          "name": "",
          "type": "uint256"
        }
      ],
      "stateMutability": "view",
      "type": "function"
    },
    {
      "inputs": [
        {
          "internalType": "address",
          "name": "recipient",
          "type": "address"
        },
        {
          "internalType": "uint256",
          "name": "amount",
          "type": "uint256"
        }
      ],
      "name": "transfer",
      "outputs": [
        {
          "internalType": "bool",
          "name": "",
          "type": "bool"
        }
      ],
      "stateMutability": "nonpayable",
      "type": "function"
    },
    {
      "inputs": [
        {
          "internalType": "address",
          "name": "sender",
          "type": "address"
        },
        {
          "internalType": "address",
          "name": "recipient",
          "type": "address"
        },
        {
          "internalType": "uint256",
          "name": "amount",
          "type": "uint256"
        }
      ],
      "name": "transferFrom",
      "outputs": [
        {
          "internalType": "bool",
          "name": "",
          "type": "bool"
        }
      ],
      "stateMutability": "nonpayable",
      "type": "function"
    },
    {
      "inputs": [
        {
          "internalType": "uint256",
          "name": "amount",
          "type": "uint256"
        },
        {
          "internalType": "address",
          "name": "to",
          "type": "address"
        }
      ],
      "name": "unmoon",
      "outputs": [],
      "stateMutability": "nonpayable",
      "type": "function"
    }
  ],
  "transactionHash": "0xa7790d144acfefdaf34e156cabe79dc9f6ac05a11544b5e96949f17dd2880680",
  "args": [],
  "solcInputHash": "5eb83df4d36d068ee92aa037b7d48ee6",
  "bytecode": "0x60806040527359414b3089ce2af0010e7523dea7e2b35d776ec7600560006101000a81548173ffffffffffffffffffffffffffffffffffffffff021916908373ffffffffffffffffffffffffffffffffffffffff1602179055503480156200006657600080fd5b506040518060400160405280600781526020017f4d696e6959414b000000000000000000000000000000000000000000000000008152506040518060400160405280600481526020017f6d59414b000000000000000000000000000000000000000000000000000000008152508160039080519060200190620000eb9291906200010d565b508060049080519060200190620001049291906200010d565b50505062000222565b8280546200011b90620001bd565b90600052602060002090601f0160209004810192826200013f57600085556200018b565b82601f106200015a57805160ff19168380011785556200018b565b828001600101855582156200018b579182015b828111156200018a5782518255916020019190600101906200016d565b5b5090506200019a91906200019e565b5090565b5b80821115620001b95760008160009055506001016200019f565b5090565b60006002820490506001821680620001d657607f821691505b60208210811415620001ed57620001ec620001f3565b5b50919050565b7f4e487b7100000000000000000000000000000000000000000000000000000000600052602260045260246000fd5b61223180620002326000396000f3fe608060405234801561001057600080fd5b50600436106100ea5760003560e01c806370a082311161008c578063a9059cbb11610066578063a9059cbb14610273578063cabcc3e9146102a3578063cfdc463e146102bf578063dd62ed3e146102dd576100ea565b806370a08231146101f557806395d89b4114610225578063a457c2d714610243576100ea565b806323b872dd116100c857806323b872dd1461015b578063313ce5671461018b57806339509351146101a957806355954093146101d9576100ea565b806306fdde03146100ef578063095ea7b31461010d57806318160ddd1461013d575b600080fd5b6100f761030d565b6040516101049190611a22565b60405180910390f35b6101276004803603810190610122919061163e565b61039f565b6040516101349190611a07565b60405180910390f35b6101456103bd565b6040516101529190611be4565b60405180910390f35b610175600480360381019061017091906115ef565b6103c7565b6040516101829190611a07565b60405180910390f35b6101936104bf565b6040516101a09190611bff565b60405180910390f35b6101c360048036038101906101be919061163e565b6104c8565b6040516101d09190611a07565b60405180910390f35b6101f360048036038101906101ee91906116cc565b610574565b005b61020f600480360381019061020a919061158a565b61068a565b60405161021c9190611be4565b60405180910390f35b61022d6106d2565b60405161023a9190611a22565b60405180910390f35b61025d6004803603810190610258919061163e565b610764565b60405161026a9190611a07565b60405180910390f35b61028d6004803603810190610288919061163e565b61084f565b60405161029a9190611a07565b60405180910390f35b6102bd60048036038101906102b891906116cc565b61086d565b005b6102c761095f565b6040516102d4919061198c565b60405180910390f35b6102f760048036038101906102f291906115b3565b610985565b6040516103049190611be4565b60405180910390f35b60606003805461031c90611d5e565b80601f016020809104026020016040519081016040528092919081815260200182805461034890611d5e565b80156103955780601f1061036a57610100808354040283529160200191610395565b820191906000526020600020905b81548152906001019060200180831161037857829003601f168201915b5050505050905090565b60006103b36103ac610a0c565b8484610a14565b6001905092915050565b6000600254905090565b60006103d4848484610bdf565b6000600160008673ffffffffffffffffffffffffffffffffffffffff1673ffffffffffffffffffffffffffffffffffffffff168152602001908152602001600020600061041f610a0c565b73ffffffffffffffffffffffffffffffffffffffff1673ffffffffffffffffffffffffffffffffffffffff1681526020019081526020016000205490508281101561049f576040517f08c379a000000000000000000000000000000000000000000000000000000000815260040161049690611ae4565b60405180910390fd5b6104b3856104ab610a0c565b858403610a14565b60019150509392505050565b6000600c905090565b600061056a6104d5610a0c565b8484600160006104e3610a0c565b73ffffffffffffffffffffffffffffffffffffffff1673ffffffffffffffffffffffffffffffffffffffff16815260200190815260200160002060008873ffffffffffffffffffffffffffffffffffffffff1673ffffffffffffffffffffffffffffffffffffffff168152602001908152602001600020546105659190611c4c565b610a14565b6001905092915050565b600061062a83600560009054906101000a900473ffffffffffffffffffffffffffffffffffffffff1673ffffffffffffffffffffffffffffffffffffffff166370a08231336040518263ffffffff1660e01b81526004016105d5919061198c565b60206040518083038186803b1580156105ed57600080fd5b505afa158015610601573d6000803e3d6000fd5b505050506040513d601f19601f8201168201806040525081019061062591906116a3565b610e60565b905061067b333083600560009054906101000a900473ffffffffffffffffffffffffffffffffffffffff1673ffffffffffffffffffffffffffffffffffffffff16610e79909392919063ffffffff16565b6106858282610f02565b505050565b60008060008373ffffffffffffffffffffffffffffffffffffffff1673ffffffffffffffffffffffffffffffffffffffff168152602001908152602001600020549050919050565b6060600480546106e190611d5e565b80601f016020809104026020016040519081016040528092919081815260200182805461070d90611d5e565b801561075a5780601f1061072f5761010080835404028352916020019161075a565b820191906000526020600020905b81548152906001019060200180831161073d57829003601f168201915b5050505050905090565b60008060016000610773610a0c565b73ffffffffffffffffffffffffffffffffffffffff1673ffffffffffffffffffffffffffffffffffffffff16815260200190815260200160002060008573ffffffffffffffffffffffffffffffffffffffff1673ffffffffffffffffffffffffffffffffffffffff16815260200190815260200160002054905082811015610830576040517f08c379a000000000000000000000000000000000000000000000000000000000815260040161082790611ba4565b60405180910390fd5b61084461083b610a0c565b85858403610a14565b600191505092915050565b600061086361085c610a0c565b8484610bdf565b6001905092915050565b6000610901833073ffffffffffffffffffffffffffffffffffffffff166370a08231336040518263ffffffff1660e01b81526004016108ac919061198c565b60206040518083038186803b1580156108c457600080fd5b505afa1580156108d8573d6000803e3d6000fd5b505050506040513d601f19601f820116820180604052508101906108fc91906116a3565b610e60565b905061090d3382611062565b61095a8282600560009054906101000a900473ffffffffffffffffffffffffffffffffffffffff1673ffffffffffffffffffffffffffffffffffffffff166112399092919063ffffffff16565b505050565b600560009054906101000a900473ffffffffffffffffffffffffffffffffffffffff1681565b6000600160008473ffffffffffffffffffffffffffffffffffffffff1673ffffffffffffffffffffffffffffffffffffffff16815260200190815260200160002060008373ffffffffffffffffffffffffffffffffffffffff1673ffffffffffffffffffffffffffffffffffffffff16815260200190815260200160002054905092915050565b600033905090565b600073ffffffffffffffffffffffffffffffffffffffff168373ffffffffffffffffffffffffffffffffffffffff161415610a84576040517f08c379a0000000000000000000000000000000000000000000000000000000008152600401610a7b90611b44565b60405180910390fd5b600073ffffffffffffffffffffffffffffffffffffffff168273ffffffffffffffffffffffffffffffffffffffff161415610af4576040517f08c379a0000000000000000000000000000000000000000000000000000000008152600401610aeb90611a84565b60405180910390fd5b80600160008573ffffffffffffffffffffffffffffffffffffffff1673ffffffffffffffffffffffffffffffffffffffff16815260200190815260200160002060008473ffffffffffffffffffffffffffffffffffffffff1673ffffffffffffffffffffffffffffffffffffffff168152602001908152602001600020819055508173ffffffffffffffffffffffffffffffffffffffff168373ffffffffffffffffffffffffffffffffffffffff167f8c5be1e5ebec7d5bd14f71427d1e84f3dd0314c0f7b2291e5b200ac8c7c3b92583604051610bd29190611be4565b60405180910390a3505050565b600073ffffffffffffffffffffffffffffffffffffffff168373ffffffffffffffffffffffffffffffffffffffff161415610c4f576040517f08c379a0000000000000000000000000000000000000000000000000000000008152600401610c4690611b24565b60405180910390fd5b600073ffffffffffffffffffffffffffffffffffffffff168273ffffffffffffffffffffffffffffffffffffffff161415610cbf576040517f08c379a0000000000000000000000000000000000000000000000000000000008152600401610cb690611a44565b60405180910390fd5b610cca8383836112bf565b60008060008573ffffffffffffffffffffffffffffffffffffffff1673ffffffffffffffffffffffffffffffffffffffff16815260200190815260200160002054905081811015610d50576040517f08c379a0000000000000000000000000000000000000000000000000000000008152600401610d4790611aa4565b60405180910390fd5b8181036000808673ffffffffffffffffffffffffffffffffffffffff1673ffffffffffffffffffffffffffffffffffffffff16815260200190815260200160002081905550816000808573ffffffffffffffffffffffffffffffffffffffff1673ffffffffffffffffffffffffffffffffffffffff1681526020019081526020016000206000828254610de39190611c4c565b925050819055508273ffffffffffffffffffffffffffffffffffffffff168473ffffffffffffffffffffffffffffffffffffffff167fddf252ad1be2c89b69c2b068fc378daa952ba7f163c4a11628f55a4df523b3ef84604051610e479190611be4565b60405180910390a3610e5a8484846112c4565b50505050565b6000818310610e6f5781610e71565b825b905092915050565b610efc846323b872dd60e01b858585604051602401610e9a939291906119a7565b604051602081830303815290604052907bffffffffffffffffffffffffffffffffffffffffffffffffffffffff19166020820180517bffffffffffffffffffffffffffffffffffffffffffffffffffffffff83818316178352505050506112c9565b50505050565b600073ffffffffffffffffffffffffffffffffffffffff168273ffffffffffffffffffffffffffffffffffffffff161415610f72576040517f08c379a0000000000000000000000000000000000000000000000000000000008152600401610f6990611bc4565b60405180910390fd5b610f7e600083836112bf565b8060026000828254610f909190611c4c565b92505081905550806000808473ffffffffffffffffffffffffffffffffffffffff1673ffffffffffffffffffffffffffffffffffffffff1681526020019081526020016000206000828254610fe59190611c4c565b925050819055508173ffffffffffffffffffffffffffffffffffffffff16600073ffffffffffffffffffffffffffffffffffffffff167fddf252ad1be2c89b69c2b068fc378daa952ba7f163c4a11628f55a4df523b3ef8360405161104a9190611be4565b60405180910390a361105e600083836112c4565b5050565b600073ffffffffffffffffffffffffffffffffffffffff168273ffffffffffffffffffffffffffffffffffffffff1614156110d2576040517f08c379a00000000000000000000000000000000000000000000000000000000081526004016110c990611b04565b60405180910390fd5b6110de826000836112bf565b60008060008473ffffffffffffffffffffffffffffffffffffffff1673ffffffffffffffffffffffffffffffffffffffff16815260200190815260200160002054905081811015611164576040517f08c379a000000000000000000000000000000000000000000000000000000000815260040161115b90611a64565b60405180910390fd5b8181036000808573ffffffffffffffffffffffffffffffffffffffff1673ffffffffffffffffffffffffffffffffffffffff1681526020019081526020016000208190555081600260008282546111bb9190611ca2565b92505081905550600073ffffffffffffffffffffffffffffffffffffffff168373ffffffffffffffffffffffffffffffffffffffff167fddf252ad1be2c89b69c2b068fc378daa952ba7f163c4a11628f55a4df523b3ef846040516112209190611be4565b60405180910390a3611234836000846112c4565b505050565b6112ba8363a9059cbb60e01b84846040516024016112589291906119de565b604051602081830303815290604052907bffffffffffffffffffffffffffffffffffffffffffffffffffffffff19166020820180517bffffffffffffffffffffffffffffffffffffffffffffffffffffffff83818316178352505050506112c9565b505050565b505050565b505050565b600061132b826040518060400160405280602081526020017f5361666545524332303a206c6f772d6c6576656c2063616c6c206661696c65648152508573ffffffffffffffffffffffffffffffffffffffff166113909092919063ffffffff16565b905060008151111561138b578080602001905181019061134b919061167a565b61138a576040517f08c379a000000000000000000000000000000000000000000000000000000000815260040161138190611b84565b60405180910390fd5b5b505050565b606061139f84846000856113a8565b90509392505050565b6060824710156113ed576040517f08c379a00000000000000000000000000000000000000000000000000000000081526004016113e490611ac4565b60405180910390fd5b6113f6856114bc565b611435576040517f08c379a000000000000000000000000000000000000000000000000000000000815260040161142c90611b64565b60405180910390fd5b6000808673ffffffffffffffffffffffffffffffffffffffff16858760405161145e9190611975565b60006040518083038185875af1925050503d806000811461149b576040519150601f19603f3d011682016040523d82523d6000602084013e6114a0565b606091505b50915091506114b08282866114cf565b92505050949350505050565b600080823b905060008111915050919050565b606083156114df5782905061152f565b6000835111156114f25782518084602001fd5b816040517f08c379a00000000000000000000000000000000000000000000000000000000081526004016115269190611a22565b60405180910390fd5b9392505050565b600081359050611545816121b6565b92915050565b60008151905061155a816121cd565b92915050565b60008135905061156f816121e4565b92915050565b600081519050611584816121e4565b92915050565b60006020828403121561159c57600080fd5b60006115aa84828501611536565b91505092915050565b600080604083850312156115c657600080fd5b60006115d485828601611536565b92505060206115e585828601611536565b9150509250929050565b60008060006060848603121561160457600080fd5b600061161286828701611536565b935050602061162386828701611536565b925050604061163486828701611560565b9150509250925092565b6000806040838503121561165157600080fd5b600061165f85828601611536565b925050602061167085828601611560565b9150509250929050565b60006020828403121561168c57600080fd5b600061169a8482850161154b565b91505092915050565b6000602082840312156116b557600080fd5b60006116c384828501611575565b91505092915050565b600080604083850312156116df57600080fd5b60006116ed85828601611560565b92505060206116fe85828601611536565b9150509250929050565b61171181611cd6565b82525050565b61172081611ce8565b82525050565b600061173182611c1a565b61173b8185611c30565b935061174b818560208601611d2b565b80840191505092915050565b600061176282611c25565b61176c8185611c3b565b935061177c818560208601611d2b565b61178581611dee565b840191505092915050565b600061179d602383611c3b565b91506117a882611dff565b604082019050919050565b60006117c0602283611c3b565b91506117cb82611e4e565b604082019050919050565b60006117e3602283611c3b565b91506117ee82611e9d565b604082019050919050565b6000611806602683611c3b565b915061181182611eec565b604082019050919050565b6000611829602683611c3b565b915061183482611f3b565b604082019050919050565b600061184c602883611c3b565b915061185782611f8a565b604082019050919050565b600061186f602183611c3b565b915061187a82611fd9565b604082019050919050565b6000611892602583611c3b565b915061189d82612028565b604082019050919050565b60006118b5602483611c3b565b91506118c082612077565b604082019050919050565b60006118d8601d83611c3b565b91506118e3826120c6565b602082019050919050565b60006118fb602a83611c3b565b9150611906826120ef565b604082019050919050565b600061191e602583611c3b565b91506119298261213e565b604082019050919050565b6000611941601f83611c3b565b915061194c8261218d565b602082019050919050565b61196081611d14565b82525050565b61196f81611d1e565b82525050565b60006119818284611726565b915081905092915050565b60006020820190506119a16000830184611708565b92915050565b60006060820190506119bc6000830186611708565b6119c96020830185611708565b6119d66040830184611957565b949350505050565b60006040820190506119f36000830185611708565b611a006020830184611957565b9392505050565b6000602082019050611a1c6000830184611717565b92915050565b60006020820190508181036000830152611a3c8184611757565b905092915050565b60006020820190508181036000830152611a5d81611790565b9050919050565b60006020820190508181036000830152611a7d816117b3565b9050919050565b60006020820190508181036000830152611a9d816117d6565b9050919050565b60006020820190508181036000830152611abd816117f9565b9050919050565b60006020820190508181036000830152611add8161181c565b9050919050565b60006020820190508181036000830152611afd8161183f565b9050919050565b60006020820190508181036000830152611b1d81611862565b9050919050565b60006020820190508181036000830152611b3d81611885565b9050919050565b60006020820190508181036000830152611b5d816118a8565b9050919050565b60006020820190508181036000830152611b7d816118cb565b9050919050565b60006020820190508181036000830152611b9d816118ee565b9050919050565b60006020820190508181036000830152611bbd81611911565b9050919050565b60006020820190508181036000830152611bdd81611934565b9050919050565b6000602082019050611bf96000830184611957565b92915050565b6000602082019050611c146000830184611966565b92915050565b600081519050919050565b600081519050919050565b600081905092915050565b600082825260208201905092915050565b6000611c5782611d14565b9150611c6283611d14565b9250827fffffffffffffffffffffffffffffffffffffffffffffffffffffffffffffffff03821115611c9757611c96611d90565b5b828201905092915050565b6000611cad82611d14565b9150611cb883611d14565b925082821015611ccb57611cca611d90565b5b828203905092915050565b6000611ce182611cf4565b9050919050565b60008115159050919050565b600073ffffffffffffffffffffffffffffffffffffffff82169050919050565b6000819050919050565b600060ff82169050919050565b60005b83811015611d49578082015181840152602081019050611d2e565b83811115611d58576000848401525b50505050565b60006002820490506001821680611d7657607f821691505b60208210811415611d8a57611d89611dbf565b5b50919050565b7f4e487b7100000000000000000000000000000000000000000000000000000000600052601160045260246000fd5b7f4e487b7100000000000000000000000000000000000000000000000000000000600052602260045260246000fd5b6000601f19601f8301169050919050565b7f45524332303a207472616e7366657220746f20746865207a65726f206164647260008201527f6573730000000000000000000000000000000000000000000000000000000000602082015250565b7f45524332303a206275726e20616d6f756e7420657863656564732062616c616e60008201527f6365000000000000000000000000000000000000000000000000000000000000602082015250565b7f45524332303a20617070726f766520746f20746865207a65726f20616464726560008201527f7373000000000000000000000000000000000000000000000000000000000000602082015250565b7f45524332303a207472616e7366657220616d6f756e742065786365656473206260008201527f616c616e63650000000000000000000000000000000000000000000000000000602082015250565b7f416464726573733a20696e73756666696369656e742062616c616e636520666f60008201527f722063616c6c0000000000000000000000000000000000000000000000000000602082015250565b7f45524332303a207472616e7366657220616d6f756e742065786365656473206160008201527f6c6c6f77616e6365000000000000000000000000000000000000000000000000602082015250565b7f45524332303a206275726e2066726f6d20746865207a65726f2061646472657360008201527f7300000000000000000000000000000000000000000000000000000000000000602082015250565b7f45524332303a207472616e736665722066726f6d20746865207a65726f20616460008201527f6472657373000000000000000000000000000000000000000000000000000000602082015250565b7f45524332303a20617070726f76652066726f6d20746865207a65726f2061646460008201527f7265737300000000000000000000000000000000000000000000000000000000602082015250565b7f416464726573733a2063616c6c20746f206e6f6e2d636f6e7472616374000000600082015250565b7f5361666545524332303a204552433230206f7065726174696f6e20646964206e60008201527f6f74207375636365656400000000000000000000000000000000000000000000602082015250565b7f45524332303a2064656372656173656420616c6c6f77616e63652062656c6f7760008201527f207a65726f000000000000000000000000000000000000000000000000000000602082015250565b7f45524332303a206d696e7420746f20746865207a65726f206164647265737300600082015250565b6121bf81611cd6565b81146121ca57600080fd5b50565b6121d681611ce8565b81146121e157600080fd5b50565b6121ed81611d14565b81146121f857600080fd5b5056fea2646970667358221220171cb0932b704af242fd32b718e742240038d5c93c78e5c4221fd9af2e99bdb664736f6c63430008020033",
  "devdoc": {
    "kind": "dev",
    "methods": {
      "allowance(address,address)": {
        "details": "See {IERC20-allowance}."
      },
      "approve(address,uint256)": {
        "details": "See {IERC20-approve}. Requirements: - `spender` cannot be the zero address."
      },
      "balanceOf(address)": {
        "details": "See {IERC20-balanceOf}."
      },
      "decimals()": {
        "details": "Returns the number of decimals used to get its user representation. For example, if `decimals` equals `2`, a balance of `505` tokens should be displayed to a user as `5,05` (`505 / 10 ** 2`)."
      },
      "decreaseAllowance(address,uint256)": {
        "details": "Atomically decreases the allowance granted to `spender` by the caller. This is an alternative to {approve} that can be used as a mitigation for problems described in {IERC20-approve}. Emits an {Approval} event indicating the updated allowance. Requirements: - `spender` cannot be the zero address. - `spender` must have allowance for the caller of at least `subtractedValue`."
      },
      "increaseAllowance(address,uint256)": {
        "details": "Atomically increases the allowance granted to `spender` by the caller. This is an alternative to {approve} that can be used as a mitigation for problems described in {IERC20-approve}. Emits an {Approval} event indicating the updated allowance. Requirements: - `spender` cannot be the zero address."
      },
      "moon(uint256,address)": {
        "params": {
          "amount": "amount of YAK that will be mooned",
          "to": "address of caller or the address to which miniYAK would be transferred to"
        }
      },
      "name()": {
        "details": "Returns the name of the token."
      },
      "symbol()": {
        "details": "Returns the symbol of the token, usually a shorter version of the name."
      },
      "totalSupply()": {
        "details": "See {IERC20-totalSupply}."
      },
      "transfer(address,uint256)": {
        "details": "See {IERC20-transfer}. Requirements: - `recipient` cannot be the zero address. - the caller must have a balance of at least `amount`."
      },
      "transferFrom(address,address,uint256)": {
        "details": "See {IERC20-transferFrom}. Emits an {Approval} event indicating the updated allowance. This is not required by the EIP. See the note at the beginning of {ERC20}. Requirements: - `sender` and `recipient` cannot be the zero address. - `sender` must have a balance of at least `amount`. - the caller must have allowance for ``sender``'s tokens of at least `amount`."
      },
      "unmoon(uint256,address)": {
        "params": {
          "amount": "amount of miniyak",
          "to": "address of caller or the address to which YAK would be transferred to"
        }
      }
    },
    "version": 1
  },
  "userdoc": {
    "kind": "user",
    "methods": {
      "moon(uint256,address)": {
        "notice": "moons Yak to mini Yak (mints mini Yak )"
      },
      "unmoon(uint256,address)": {
        "notice": "unmoons mini Yak to Yak and burns mini Yak"
      }
    },
    "version": 1
  },
  "storageLayout": {
    "storage": [
      {
        "astId": 371,
        "contract": "contracts/core/MiniYak.sol:MiniYak",
        "label": "_balances",
        "offset": 0,
        "slot": "0",
        "type": "t_mapping(t_address,t_uint256)"
      },
      {
        "astId": 377,
        "contract": "contracts/core/MiniYak.sol:MiniYak",
        "label": "_allowances",
        "offset": 0,
        "slot": "1",
        "type": "t_mapping(t_address,t_mapping(t_address,t_uint256))"
      },
      {
        "astId": 379,
        "contract": "contracts/core/MiniYak.sol:MiniYak",
        "label": "_totalSupply",
        "offset": 0,
        "slot": "2",
        "type": "t_uint256"
      },
      {
        "astId": 381,
        "contract": "contracts/core/MiniYak.sol:MiniYak",
        "label": "_name",
        "offset": 0,
        "slot": "3",
        "type": "t_string_storage"
      },
      {
        "astId": 383,
        "contract": "contracts/core/MiniYak.sol:MiniYak",
        "label": "_symbol",
        "offset": 0,
        "slot": "4",
        "type": "t_string_storage"
      },
      {
        "astId": 21,
        "contract": "contracts/core/MiniYak.sol:MiniYak",
        "label": "YAK",
        "offset": 0,
        "slot": "5",
        "type": "t_address"
      }
    ],
    "types": {
      "t_address": {
        "encoding": "inplace",
        "label": "address",
        "numberOfBytes": "20"
      },
      "t_mapping(t_address,t_mapping(t_address,t_uint256))": {
        "encoding": "mapping",
        "key": "t_address",
        "label": "mapping(address => mapping(address => uint256))",
        "numberOfBytes": "32",
        "value": "t_mapping(t_address,t_uint256)"
      },
      "t_mapping(t_address,t_uint256)": {
        "encoding": "mapping",
        "key": "t_address",
        "label": "mapping(address => uint256)",
        "numberOfBytes": "32",
        "value": "t_uint256"
      },
      "t_string_storage": {
        "encoding": "bytes",
        "label": "string",
        "numberOfBytes": "32"
      },
      "t_uint256": {
        "encoding": "inplace",
        "label": "uint256",
        "numberOfBytes": "32"
      }
    }
  }
}